{"contracts/Contract.sol":{"Contract":{"abi":[{"inputs":[],"name":"Contract__DoctorPublicKeyMissing","type":"error"},{"inputs":[],"name":"Contract__NotAdmin","type":"error"},{"inputs":[],"name":"Contract__NotDoctor","type":"error"},{"inputs":[],"name":"Contract__NotPatient","type":"error"},{"inputs":[],"name":"Contract__PendingDoctorApproval","type":"error"},{"inputs":[{"internalType":"address","name":"_address","type":"address"}],"name":"approveDr","outputs":[],"stateMutability":"nonpayable","type":"function"},{"inputs":[{"internalType":"address","name":"_address","type":"address"},{"internalType":"string","name":"_general_hash","type":"string"},{"internalType":"string","name":"_key_hash","type":"string"}],"name":"changeEditorAccess","outputs":[],"stateMutability":"nonpayable","type":"function"},{"inputs":[{"internalType":"address","name":"_address","type":"address"}],"name":"disapproveDr","outputs":[],"stateMutability":"nonpayable","type":"function"},{"inputs":[],"name":"getAdmin","outputs":[{"internalType":"address","name":"","type":"address"}],"stateMutability":"view","type":"function"},{"inputs":[],"name":"getAdminPubKey","outputs":[{"internalType":"string","name":"","type":"string"}],"stateMutability":"view","type":"function"},{"inputs":[],"name":"getAllDrs","outputs":[{"internalType":"address[]","name":"","type":"address[]"}],"stateMutability":"view","type":"function"},{"inputs":[],"name":"getAllPts","outputs":[{"internalType":"address[]","name":"","type":"address[]"}],"stateMutability":"view","type":"function"},{"inputs":[{"internalType":"address","name":"_address","type":"address"}],"name":"getDrHash","outputs":[{"internalType":"string","name":"","type":"string"}],"stateMutability":"view","type":"function"},{"inputs":[],"name":"getDrOfPt","outputs":[{"internalType":"address","name":"","type":"address"}],"stateMutability":"view","type":"function"},{"inputs":[{"internalType":"address","name":"_address","type":"address"}],"name":"getDrPubKey","outputs":[{"internalType":"string","name":"","type":"string"}],"stateMutability":"view","type":"function"},{"inputs":[],"name":"getPatViewers","outputs":[{"internalType":"address[]","name":"","type":"address[]"}],"stateMutability":"view","type":"function"},{"inputs":[],"name":"getPendingDrs","outputs":[{"internalType":"address[]","name":"","type":"address[]"}],"stateMutability":"view","type":"function"},{"inputs":[{"internalType":"address","name":"_address","type":"address"}],"name":"getPtGeneralHash","outputs":[{"internalType":"string","name":"","type":"string"}],"stateMutability":"view","type":"function"},{"inputs":[{"internalType":"address","name":"_address","type":"address"}],"name":"getPtRecordHash","outputs":[{"internalType":"string","name":"","type":"string"}],"stateMutability":"view","type":"function"},{"inputs":[],"name":"getPtsOfDr","outputs":[{"internalType":"address[]","name":"","type":"address[]"}],"stateMutability":"view","type":"function"},{"inputs":[{"internalType":"address","name":"_address","type":"address"}],"name":"grantViewerAccess","outputs":[],"stateMutability":"nonpayable","type":"function"},{"inputs":[],"name":"initialize","outputs":[],"stateMutability":"nonpayable","type":"function"},{"inputs":[{"internalType":"address","name":"_address","type":"address"}],"name":"isAdmin","outputs":[{"internalType":"bool","name":"","type":"bool"}],"stateMutability":"view","type":"function"},{"inputs":[{"internalType":"address","name":"_address","type":"address"}],"name":"isDoctor","outputs":[{"internalType":"bool","name":"","type":"bool"}],"stateMutability":"view","type":"function"},{"inputs":[{"internalType":"address","name":"_address","type":"address"}],"name":"isDrPending","outputs":[{"internalType":"bool","name":"","type":"bool"}],"stateMutability":"view","type":"function"},{"inputs":[{"internalType":"address","name":"_address","type":"address"}],"name":"isDrRegistered","outputs":[{"internalType":"bool","name":"","type":"bool"}],"stateMutability":"view","type":"function"},{"inputs":[{"internalType":"address","name":"_address","type":"address"}],"name":"isPatient","outputs":[{"internalType":"bool","name":"","type":"bool"}],"stateMutability":"view","type":"function"},{"inputs":[{"internalType":"string","name":"_hash","type":"string"}],"name":"registerDr","outputs":[],"stateMutability":"nonpayable","type":"function"},{"inputs":[{"internalType":"string","name":"_public_key","type":"string"}],"name":"registerDrConfirm","outputs":[],"stateMutability":"nonpayable","type":"function"},{"inputs":[{"internalType":"string","name":"_hash","type":"string"},{"internalType":"string","name":"_key_data_hash","type":"string"}],"name":"registerPt","outputs":[],"stateMutability":"nonpayable","type":"function"},{"inputs":[{"internalType":"string","name":"_general_hash","type":"string"},{"internalType":"string","name":"_key_hash","type":"string"}],"name":"removeEditorAccess","outputs":[],"stateMutability":"nonpayable","type":"function"},{"inputs":[{"internalType":"address","name":"_address","type":"address"}],"name":"revokeViewerAccess","outputs":[],"stateMutability":"nonpayable","type":"function"},{"inputs":[{"internalType":"string","name":"_public_key","type":"string"}],"name":"setAdminPubKey","outputs":[],"stateMutability":"nonpayable","type":"function"},{"inputs":[{"internalType":"string","name":"_hash","type":"string"}],"name":"setDrHash","outputs":[],"stateMutability":"nonpayable","type":"function"},{"inputs":[{"internalType":"string","name":"_hash","type":"string"}],"name":"setPtGeneralHash","outputs":[],"stateMutability":"nonpayable","type":"function"},{"inputs":[{"internalType":"address","name":"_address","type":"address"},{"internalType":"string","name":"_hash","type":"string"}],"name":"setPtRecordHash","outputs":[],"stateMutability":"nonpayable","type":"function"}],"devdoc":{"kind":"dev","methods":{},"version":1},"evm":{"bytecode":{"linkReferences":{},"object":"608060405234801561001057600080fd5b506125c4806100206000396000f3fe608060405234801561001057600080fd5b50600436106101e55760003560e01c80638f7f43a91161010f578063c70597ad116100a2578063d3cd4df411610071578063d3cd4df4146103e9578063dc823aaf146103fc578063e2877b4e1461040f578063f7a03a1e1461041757600080fd5b8063c70597ad146103a8578063cce9d43e146103bb578063ccfaed16146103ce578063d0d9a5e3146103e157600080fd5b8063a03de49e116100de578063a03de49e14610367578063a53f514d1461037a578063afb97e3d14610382578063b1e758a41461039557600080fd5b80638f7f43a9146103265780638f9c79ed1461032e578063996440c61461034157806399eedd2a1461035457600080fd5b80633d8198b4116101875780636e9960c3116101565780636e9960c3146102e7578063745ada64146102f85780638129fc1c1461030b57806388c432e11461031357600080fd5b80633d8198b41461029b5780634df0a2d4146102ae5780635b0a7aad146102c15780636d4bce20146102d457600080fd5b806321639f04116101c357806321639f041461023257806324d7806c14610252578063290c61b014610275578063329918381461028857600080fd5b80630de99991146101ea578063116461e9146101ff5780631da3e2dc1461021d575b600080fd5b6101fd6101f836600461204e565b61042a565b005b610207610495565b6040516102149190612069565b60405180910390f35b61022561052a565b60405161021491906120d5565b61023a61053b565b6040516001600160a01b039091168152602001610214565b61026561026036600461204e565b610599565b6040519015158152602001610214565b61026561028336600461204e565b6105bf565b6101fd6102963660046121fc565b6105d2565b6102076102a936600461204e565b6106e1565b6102076102bc36600461204e565b6108dc565b6101fd6102cf366004612239565b6109ed565b6102656102e236600461204e565b610ab6565b6000546001600160a01b031661023a565b6101fd61030636600461204e565b610ad7565b6101fd610b76565b6101fd6103213660046121fc565b610c20565b610225610c6b565b61026561033c36600461204e565b610d17565b61026561034f36600461204e565b610d24565b6101fd6103623660046121fc565b610da2565b6101fd610375366004612239565b610f04565b61022561105c565b6101fd6103903660046121fc565b611068565b6101fd6103a336600461204e565b6110b7565b6101fd6103b636600461229d565b61120e565b6102076103c936600461204e565b6112db565b6101fd6103dc3660046121fc565b611327565b610225611442565b6101fd6103f73660046122e1565b61158b565b61020761040a36600461204e565b61166b565b610225611692565b6101fd61042536600461204e565b6116f1565b61043333610599565b610469576040517f4d371dc700000000000000000000000000000000000000000000000000000000815260040160405180910390fd5b61047281610d24565b6104925761048160058261178b565b15610492575b61049260028261181d565b50565b6060600060010180546104a790612355565b80601f01602080910402602001604051908101604052809291908181526020018280546104d390612355565b80156105205780601f106104f557610100808354040283529160200191610520565b820191906000526020600020905b81548152906001019060200180831161050357829003601f168201915b5050505050905090565b6060610536600561199a565b905090565b600061054633610d17565b61057c576040517fc11330e600000000000000000000000000000000000000000000000000000000815260040160405180910390fd5b50336000908152600f60205260409020546001600160a01b031690565b600080546001600160a01b038084169116036105b757506001919050565b506000919050565b60006105cc60058361178b565b92915050565b6105db33610d17565b156106535760405162461bcd60e51b815260206004820152602f60248201527f436f6e74726163743a204164647265737320616c72656164792072656769737460448201527f657265642061732070617469656e74000000000000000000000000000000000060648201526084015b60405180910390fd5b80516000036106ca5760405162461bcd60e51b815260206004820152602360248201527f436f6e74726163743a20456d7074792068617368206973206e6f7420616c6c6f60448201527f7765640000000000000000000000000000000000000000000000000000000000606482015260840161064a565b6106d6600533836119fb565b610492600233611a5d565b60606106ec82610d17565b610722576040517fc11330e600000000000000000000000000000000000000000000000000000000815260040160405180910390fd5b336001600160a01b038316148061075257506001600160a01b038281166000908152600f60205260409020541633145b806107e457506001600160a01b0382166000908152600f602090815260409182902060010180548351818402810184019094528084526107de933393909291908301828280156107cb57602002820191906000526020600020905b81546001600160a01b031681526001909101906020018083116107ad575b5050505050611b1090919063ffffffff16565b60001914155b15610894576001600160a01b0382166000908152600f60205260409020600201805461080f90612355565b80601f016020809104026020016040519081016040528092919081815260200182805461083b90612355565b80156108885780601f1061085d57610100808354040283529160200191610888565b820191906000526020600020905b81548152906001019060200180831161086b57829003601f168201915b50505050509050919050565b60405162461bcd60e51b815260206004820152600b60248201527f4e6f7420416c6c6f776564000000000000000000000000000000000000000000604482015260640161064a565b60606108e782610d17565b61091d576040517fc11330e600000000000000000000000000000000000000000000000000000000815260040160405180910390fd5b336001600160a01b038316148061094d57506001600160a01b038281166000908152600f60205260409020541633145b806109dd57506001600160a01b0382166000908152600f602090815260409182902060010180548351818402810184019094528084526109d7933393909291908301828280156107cb576020028201919060005260206000209081546001600160a01b031681526001909101906020018083116107ad575050505050611b1090919063ffffffff16565b60001914155b15610894576105cc600b83611b73565b6109f633610d17565b610a2c576040517fc11330e600000000000000000000000000000000000000000000000000000000815260040160405180910390fd5b336000818152600f6020908152604080832080547fffffffffffffffffffffffff0000000000000000000000000000000000000000811686179091556001600160a01b0316808452600a9092529091209091610a88919061181d565b610a94600b3385611a52565b336000908152600f60205260409020600201610ab083826123f6565b50505050565b6001600160a01b03811660009081526003602052604081205460ff166105cc565b610ae033610599565b610b16576040517f4d371dc700000000000000000000000000000000000000000000000000000000815260040160405180910390fd5b610b1f81610ab6565b610b6b5760405162461bcd60e51b815260206004820152601f60248201527f436f6e74726163743a20446f63746f72206e6f74207265676973746572656400604482015260640161064a565b610487600582611b86565b60105460ff1615610bc95760405162461bcd60e51b815260206004820152601d60248201527f436f6e747261637420616c726561647920696e697469616c697a656421000000604482015260640161064a565b600080547fffffffffffffffffffffffff00000000000000000000000000000000000000001633179055601080547fffffffffffffffffffffffffffffffffffffffffffffffffffffffffffffff00166001179055565b610c2933610d17565b610c5f576040517fc11330e600000000000000000000000000000000000000000000000000000000815260040160405180910390fd5b610492600b3383611a52565b6060610c7633610d17565b610cac576040517fc11330e600000000000000000000000000000000000000000000000000000000815260040160405180910390fd5b336000908152600f60209081526040918290206001018054835181840281018401909452808452909183018282801561052057602002820191906000526020600020905b81546001600160a01b03168152600190910190602001808311610cf0575050505050905090565b60006105cc600b8361178b565b6000610d3160058361178b565b610d3d57506000919050565b6001600160a01b03821660009081526003602052604090205460ff1615610d6657506000919050565b6001600160a01b03821660009081526009602052604090208054610d8990612355565b9050600003610d9a57506000919050565b506001919050565b610dad60053361178b565b610de3576040517ffe2fc9c600000000000000000000000000000000000000000000000000000000815260040160405180910390fd5b3360009081526003602052604090205460ff1615610e2d576040517ff873d3b700000000000000000000000000000000000000000000000000000000815260040160405180910390fd5b3360009081526009602052604090208054610e4790612355565b9050600003610e82576040517fa30132d500000000000000000000000000000000000000000000000000000000815260040160405180910390fd5b8051600003610ef85760405162461bcd60e51b8152602060048201526024808201527f436f6e74726163743a20456d7074792068617368206973206e6f7420616c6c6f60448201527f7765642100000000000000000000000000000000000000000000000000000000606482015260840161064a565b61049260053383611a52565b610f0d336105bf565b80610f1c5750610f1c33610d24565b15610f8f5760405162461bcd60e51b815260206004820152602e60248201527f436f6e74726163743a204164647265737320616c72656164792072656769737460448201527f6572656420617320646f63746f72000000000000000000000000000000000000606482015260840161064a565b81516000036110065760405162461bcd60e51b815260206004820152602360248201527f436f6e74726163743a20456d7074792068617368206973206e6f7420616c6c6f60448201527f7765640000000000000000000000000000000000000000000000000000000000606482015260840161064a565b611012600b33846119fb565b336000818152600f6020526040902080547fffffffffffffffffffffffff000000000000000000000000000000000000000016909117815560020161105782826123f6565b505050565b6060610536600b61199a565b61107133610599565b6110a7576040517f4d371dc700000000000000000000000000000000000000000000000000000000815260040160405180910390fd5b60016110b382826123f6565b5050565b6110c033610d17565b6110f6576040517fc11330e600000000000000000000000000000000000000000000000000000000815260040160405180910390fd5b6110ff81610d24565b611135576040517ffe2fc9c600000000000000000000000000000000000000000000000000000000815260040160405180910390fd5b336000908152600f602090815260409182902060010180548351818402810184019094528084526111b29385939092919083018282801561119f57602002820191906000526020600020905b81546001600160a01b03168152600190910190602001808311611181575b5050505050611c0c90919063ffffffff16565b61049257336000908152600f602090815260408220600190810180549182018155835291200180546001600160a01b0383167fffffffffffffffffffffffff000000000000000000000000000000000000000090911617905550565b61121782610d17565b61124d576040517fc11330e600000000000000000000000000000000000000000000000000000000815260040160405180910390fd5b6001600160a01b038281166000908152600f60205260409020541633146112b65760405162461bcd60e51b815260206004820152600b60248201527f4e6f7420416c6c6f776564000000000000000000000000000000000000000000604482015260640161064a565b6001600160a01b0382166000908152600f6020526040902060020161105782826123f6565b60606112e6826105bf565b61131c576040517ffe2fc9c600000000000000000000000000000000000000000000000000000000815260040160405180910390fd5b6105cc600583611b73565b805160000361139e5760405162461bcd60e51b815260206004820152602a60248201527f436f6e74726163743a20456d707479207075626c6963206b6579206973206e6f60448201527f7420616c6c6f7765642100000000000000000000000000000000000000000000606482015260840161064a565b6113a960053361178b565b6113df576040517ffe2fc9c600000000000000000000000000000000000000000000000000000000815260040160405180910390fd5b3360009081526003602052604090205460ff1615611429576040517ff873d3b700000000000000000000000000000000000000000000000000000000815260040160405180910390fd5b3360009081526009602052604090206110b382826123f6565b606061144f60053361178b565b611485576040517ffe2fc9c600000000000000000000000000000000000000000000000000000000815260040160405180910390fd5b3360009081526003602052604090205460ff16156114cf576040517ff873d3b700000000000000000000000000000000000000000000000000000000815260040160405180910390fd5b33600090815260096020526040902080546114e990612355565b9050600003611524576040517fa30132d500000000000000000000000000000000000000000000000000000000815260040160405180910390fd5b336000908152600a602090815260409182902080548351818402810184019094528084529091830182828015610520576020028201919060005260206000209081546001600160a01b03168152600190910190602001808311610cf0575050505050905090565b61159433610d17565b6115ca576040517fc11330e600000000000000000000000000000000000000000000000000000000815260040160405180910390fd5b6115d383610d24565b611609576040517ffe2fc9c600000000000000000000000000000000000000000000000000000000815260040160405180910390fd5b61161382826109ed565b336000818152600f6020908152604080832080547fffffffffffffffffffffffff0000000000000000000000000000000000000000166001600160a01b0389169081179091558352600a909152902061105791611a5d565b6001600160a01b038116600090815260096020526040902080546060919061080f90612355565b600280546040805160208084028201810190925282815260609390929091830182828015610520576020028201919060005260206000209081546001600160a01b03168152600190910190602001808311610cf0575050505050905090565b6116fa33610d17565b611730576040517fc11330e600000000000000000000000000000000000000000000000000000000815260040160405180910390fd5b61173981610d24565b61176f576040517ffe2fc9c600000000000000000000000000000000000000000000000000000000815260040160405180910390fd5b336000908152600f602052604090206110b39060010182611c24565b60006001600160a01b0382166118095760405162461bcd60e51b815260206004820152602260248201527f526f6c65733a206163636f756e7420697320746865207a65726f20616464726560448201527f7373000000000000000000000000000000000000000000000000000000000000606482015260840161064a565b6118138383611db6565b5115159392505050565b6001600160a01b038116600090815260018301602052604090205460ff16611843575050565b6001600160a01b038116600090815260018084016020908152604080842080547fffffffffffffffffffffffffffffffffffffffffffffffffffffffffffffff0016905560028601909152822054845490929161189f91612503565b905060008460000182815481106118b8576118b8612516565b60009182526020808320909101546001600160a01b0390811680845260028901909252604080842087905590871683528220919091558554909150819086908590811061190757611907612516565b600091825260209091200180547fffffffffffffffffffffffff0000000000000000000000000000000000000000166001600160a01b0392909216919091179055845485908061195957611959612545565b600082815260209020810160001990810180547fffffffffffffffffffffffff00000000000000000000000000000000000000001690550190555050505050565b805460408051602080840282018101909252828152606092909184919083018282801561088857602002820191906000526020600020905b81546001600160a01b031681526001909101906020018083116119d25750505050509050919050565b611a05838361178b565b15611a525760405162461bcd60e51b815260206004820152601f60248201527f526f6c65733a206163636f756e7420616c72656164792068617320726f6c6500604482015260640161064a565b611057838383611e65565b6001600160a01b038116600090815260018301602052604090205460ff1615611a84575050565b6001600160a01b0316600081815260018381016020908152604080842080547fffffffffffffffffffffffffffffffffffffffffffffffffffffffffffffff0016841790558554600287018352908420819055918201855593825292902090910180547fffffffffffffffffffffffff0000000000000000000000000000000000000000169091179055565b6000805b8351811015611b6857826001600160a01b0316848281518110611b3957611b39612516565b60200260200101516001600160a01b031603611b565790506105cc565b80611b6081612574565b915050611b14565b506000199392505050565b6060611b7f8383611db6565b9392505050565b611b90828261178b565b611c025760405162461bcd60e51b815260206004820152602160248201527f526f6c65733a206163636f756e7420646f6573206e6f74206861766520726f6c60448201527f6500000000000000000000000000000000000000000000000000000000000000606482015260840161064a565b6110b38282611f3d565b6000611c188383611b10565b60001914159392505050565b600080611c8a84805480602002602001604051908101604052809291908181526020018280548015611c7f57602002820191906000526020600020905b81546001600160a01b03168152600190910190602001808311611c61575b505050505084611b10565b90508019611c9c5760009150506105cc565b600084805480602002602001604051908101604052809291908181526020018280548015611cf357602002820191906000526020600020905b81546001600160a01b03168152600190910190602001808311611cd5575b505050505090508060018251611d099190612503565b81518110611d1957611d19612516565b6020026020010151858381548110611d3357611d33612516565b9060005260206000200160006101000a8154816001600160a01b0302191690836001600160a01b0316021790555084805480611d7157611d71612545565b600082815260209020600019908201810180547fffffffffffffffffffffffff0000000000000000000000000000000000000000169055019055506001949350505050565b6001600160a01b03811660009081526001830160205260409020805460609190611ddf90612355565b80601f0160208091040260200160405190810160405280929190818152602001828054611e0b90612355565b8015611e585780601f10611e2d57610100808354040283529160200191611e58565b820191906000526020600020905b815481529060010190602001808311611e3b57829003601f168201915b5050505050905092915050565b6001600160a01b038216600090815260038401602052604090205460ff16611f195782546001600160a01b038316600081815260028601602090815260408083209490945560038701815292812080547fffffffffffffffffffffffffffffffffffffffffffffffffffffffffffffff001660019081179091558654908101875586825292902090910180547fffffffffffffffffffffffff00000000000000000000000000000000000000001690911790555b6001600160a01b03821660009081526001840160205260409020610ab082826123f6565b6001600160a01b038116600090815260038301602052604090205460ff16611f63575050565b6001600160a01b03811660009081526001830160205260408120611f8691611fe4565b6001600160a01b0381166000908152600383016020908152604080832080547fffffffffffffffffffffffffffffffffffffffffffffffffffffffffffffff0016905560028501909152812054835490919061189f90600190612503565b508054611ff090612355565b6000825580601f10612000575050565b601f01602090049060005260206000209081019061049291905b8082111561202e576000815560010161201a565b5090565b80356001600160a01b038116811461204957600080fd5b919050565b60006020828403121561206057600080fd5b611b7f82612032565b600060208083528351808285015260005b818110156120965785810183015185820160400152820161207a565b5060006040828601015260407fffffffffffffffffffffffffffffffffffffffffffffffffffffffffffffffe0601f8301168501019250505092915050565b6020808252825182820181905260009190848201906040850190845b818110156121165783516001600160a01b0316835292840192918401916001016120f1565b50909695505050505050565b7f4e487b7100000000000000000000000000000000000000000000000000000000600052604160045260246000fd5b600082601f83011261216257600080fd5b813567ffffffffffffffff8082111561217d5761217d612122565b604051601f83017fffffffffffffffffffffffffffffffffffffffffffffffffffffffffffffffe0908116603f011681019082821181831017156121c3576121c3612122565b816040528381528660208588010111156121dc57600080fd5b836020870160208301376000602085830101528094505050505092915050565b60006020828403121561220e57600080fd5b813567ffffffffffffffff81111561222557600080fd5b61223184828501612151565b949350505050565b6000806040838503121561224c57600080fd5b823567ffffffffffffffff8082111561226457600080fd5b61227086838701612151565b9350602085013591508082111561228657600080fd5b5061229385828601612151565b9150509250929050565b600080604083850312156122b057600080fd5b6122b983612032565b9150602083013567ffffffffffffffff8111156122d557600080fd5b61229385828601612151565b6000806000606084860312156122f657600080fd5b6122ff84612032565b9250602084013567ffffffffffffffff8082111561231c57600080fd5b61232887838801612151565b9350604086013591508082111561233e57600080fd5b5061234b86828701612151565b9150509250925092565b600181811c9082168061236957607f821691505b6020821081036123a2577f4e487b7100000000000000000000000000000000000000000000000000000000600052602260045260246000fd5b50919050565b601f82111561105757600081815260208120601f850160051c810160208610156123cf5750805b601f850160051c820191505b818110156123ee578281556001016123db565b505050505050565b815167ffffffffffffffff81111561241057612410612122565b6124248161241e8454612355565b846123a8565b602080601f83116001811461245957600084156124415750858301515b600019600386901b1c1916600185901b1785556123ee565b6000858152602081207fffffffffffffffffffffffffffffffffffffffffffffffffffffffffffffffe08616915b828110156124a657888601518255948401946001909101908401612487565b50858210156124c45787850151600019600388901b60f8161c191681555b5050505050600190811b01905550565b7f4e487b7100000000000000000000000000000000000000000000000000000000600052601160045260246000fd5b818103818111156105cc576105cc6124d4565b7f4e487b7100000000000000000000000000000000000000000000000000000000600052603260045260246000fd5b7f4e487b7100000000000000000000000000000000000000000000000000000000600052603160045260246000fd5b60006000198203612587576125876124d4565b506001019056fea26469706673582212206d81b3a1b0369d18136bf26f1f7e7da69ef403d90acdc5cbfbebb998fea757a164736f6c63430008110033","opcodes":"PUSH1 0x80 PUSH1 0x40 MSTORE CALLVALUE DUP1 ISZERO PUSH2 0x10 JUMPI PUSH1 0x0 DUP1 REVERT JUMPDEST POP PUSH2 0x25C4 DUP1 PUSH2 0x20 PUSH1 0x0 CODECOPY PUSH1 0x0 RETURN INVALID PUSH1 0x80 PUSH1 0x40 MSTORE CALLVALUE DUP1 ISZERO PUSH2 0x10 JUMPI PUSH1 0x0 DUP1 REVERT JUMPDEST POP PUSH1 0x4 CALLDATASIZE LT PUSH2 0x1E5 JUMPI PUSH1 0x0 CALLDATALOAD PUSH1 0xE0 SHR DUP1 PUSH4 0x8F7F43A9 GT PUSH2 0x10F JUMPI DUP1 PUSH4 0xC70597AD GT PUSH2 0xA2 JUMPI DUP1 PUSH4 0xD3CD4DF4 GT PUSH2 0x71 JUMPI DUP1 PUSH4 0xD3CD4DF4 EQ PUSH2 0x3E9 JUMPI DUP1 PUSH4 0xDC823AAF EQ PUSH2 0x3FC JUMPI DUP1 PUSH4 0xE2877B4E EQ PUSH2 0x40F JUMPI DUP1 PUSH4 0xF7A03A1E EQ PUSH2 0x417 JUMPI PUSH1 0x0 DUP1 REVERT JUMPDEST DUP1 PUSH4 0xC70597AD EQ PUSH2 0x3A8 JUMPI DUP1 PUSH4 0xCCE9D43E EQ PUSH2 0x3BB JUMPI DUP1 PUSH4 0xCCFAED16 EQ PUSH2 0x3CE JUMPI DUP1 PUSH4 0xD0D9A5E3 EQ PUSH2 0x3E1 JUMPI PUSH1 0x0 DUP1 REVERT JUMPDEST DUP1 PUSH4 0xA03DE49E GT PUSH2 0xDE JUMPI DUP1 PUSH4 0xA03DE49E EQ PUSH2 0x367 JUMPI DUP1 PUSH4 0xA53F514D EQ PUSH2 0x37A JUMPI DUP1 PUSH4 0xAFB97E3D EQ PUSH2 0x382 JUMPI DUP1 PUSH4 0xB1E758A4 EQ PUSH2 0x395 JUMPI PUSH1 0x0 DUP1 REVERT JUMPDEST DUP1 PUSH4 0x8F7F43A9 EQ PUSH2 0x326 JUMPI DUP1 PUSH4 0x8F9C79ED EQ PUSH2 0x32E JUMPI DUP1 PUSH4 0x996440C6 EQ PUSH2 0x341 JUMPI DUP1 PUSH4 0x99EEDD2A EQ PUSH2 0x354 JUMPI PUSH1 0x0 DUP1 REVERT JUMPDEST DUP1 PUSH4 0x3D8198B4 GT PUSH2 0x187 JUMPI DUP1 PUSH4 0x6E9960C3 GT PUSH2 0x156 JUMPI DUP1 PUSH4 0x6E9960C3 EQ PUSH2 0x2E7 JUMPI DUP1 PUSH4 0x745ADA64 EQ PUSH2 0x2F8 JUMPI DUP1 PUSH4 0x8129FC1C EQ PUSH2 0x30B JUMPI DUP1 PUSH4 0x88C432E1 EQ PUSH2 0x313 JUMPI PUSH1 0x0 DUP1 REVERT JUMPDEST DUP1 PUSH4 0x3D8198B4 EQ PUSH2 0x29B JUMPI DUP1 PUSH4 0x4DF0A2D4 EQ PUSH2 0x2AE JUMPI DUP1 PUSH4 0x5B0A7AAD EQ PUSH2 0x2C1 JUMPI DUP1 PUSH4 0x6D4BCE20 EQ PUSH2 0x2D4 JUMPI PUSH1 0x0 DUP1 REVERT JUMPDEST DUP1 PUSH4 0x21639F04 GT PUSH2 0x1C3 JUMPI DUP1 PUSH4 0x21639F04 EQ PUSH2 0x232 JUMPI DUP1 PUSH4 0x24D7806C EQ PUSH2 0x252 JUMPI DUP1 PUSH4 0x290C61B0 EQ PUSH2 0x275 JUMPI DUP1 PUSH4 0x32991838 EQ PUSH2 0x288 JUMPI PUSH1 0x0 DUP1 REVERT JUMPDEST DUP1 PUSH4 0xDE99991 EQ PUSH2 0x1EA JUMPI DUP1 PUSH4 0x116461E9 EQ PUSH2 0x1FF JUMPI DUP1 PUSH4 0x1DA3E2DC EQ PUSH2 0x21D JUMPI JUMPDEST PUSH1 0x0 DUP1 REVERT JUMPDEST PUSH2 0x1FD PUSH2 0x1F8 CALLDATASIZE PUSH1 0x4 PUSH2 0x204E JUMP JUMPDEST PUSH2 0x42A JUMP JUMPDEST STOP JUMPDEST PUSH2 0x207 PUSH2 0x495 JUMP JUMPDEST PUSH1 0x40 MLOAD PUSH2 0x214 SWAP2 SWAP1 PUSH2 0x2069 JUMP JUMPDEST PUSH1 0x40 MLOAD DUP1 SWAP2 SUB SWAP1 RETURN JUMPDEST PUSH2 0x225 PUSH2 0x52A JUMP JUMPDEST PUSH1 0x40 MLOAD PUSH2 0x214 SWAP2 SWAP1 PUSH2 0x20D5 JUMP JUMPDEST PUSH2 0x23A PUSH2 0x53B JUMP JUMPDEST PUSH1 0x40 MLOAD PUSH1 0x1 PUSH1 0x1 PUSH1 0xA0 SHL SUB SWAP1 SWAP2 AND DUP2 MSTORE PUSH1 0x20 ADD PUSH2 0x214 JUMP JUMPDEST PUSH2 0x265 PUSH2 0x260 CALLDATASIZE PUSH1 0x4 PUSH2 0x204E JUMP JUMPDEST PUSH2 0x599 JUMP JUMPDEST PUSH1 0x40 MLOAD SWAP1 ISZERO ISZERO DUP2 MSTORE PUSH1 0x20 ADD PUSH2 0x214 JUMP JUMPDEST PUSH2 0x265 PUSH2 0x283 CALLDATASIZE PUSH1 0x4 PUSH2 0x204E JUMP JUMPDEST PUSH2 0x5BF JUMP JUMPDEST PUSH2 0x1FD PUSH2 0x296 CALLDATASIZE PUSH1 0x4 PUSH2 0x21FC JUMP JUMPDEST PUSH2 0x5D2 JUMP JUMPDEST PUSH2 0x207 PUSH2 0x2A9 CALLDATASIZE PUSH1 0x4 PUSH2 0x204E JUMP JUMPDEST PUSH2 0x6E1 JUMP JUMPDEST PUSH2 0x207 PUSH2 0x2BC CALLDATASIZE PUSH1 0x4 PUSH2 0x204E JUMP JUMPDEST PUSH2 0x8DC JUMP JUMPDEST PUSH2 0x1FD PUSH2 0x2CF CALLDATASIZE PUSH1 0x4 PUSH2 0x2239 JUMP JUMPDEST PUSH2 0x9ED JUMP JUMPDEST PUSH2 0x265 PUSH2 0x2E2 CALLDATASIZE PUSH1 0x4 PUSH2 0x204E JUMP JUMPDEST PUSH2 0xAB6 JUMP JUMPDEST PUSH1 0x0 SLOAD PUSH1 0x1 PUSH1 0x1 PUSH1 0xA0 SHL SUB AND PUSH2 0x23A JUMP JUMPDEST PUSH2 0x1FD PUSH2 0x306 CALLDATASIZE PUSH1 0x4 PUSH2 0x204E JUMP JUMPDEST PUSH2 0xAD7 JUMP JUMPDEST PUSH2 0x1FD PUSH2 0xB76 JUMP JUMPDEST PUSH2 0x1FD PUSH2 0x321 CALLDATASIZE PUSH1 0x4 PUSH2 0x21FC JUMP JUMPDEST PUSH2 0xC20 JUMP JUMPDEST PUSH2 0x225 PUSH2 0xC6B JUMP JUMPDEST PUSH2 0x265 PUSH2 0x33C CALLDATASIZE PUSH1 0x4 PUSH2 0x204E JUMP JUMPDEST PUSH2 0xD17 JUMP JUMPDEST PUSH2 0x265 PUSH2 0x34F CALLDATASIZE PUSH1 0x4 PUSH2 0x204E JUMP JUMPDEST PUSH2 0xD24 JUMP JUMPDEST PUSH2 0x1FD PUSH2 0x362 CALLDATASIZE PUSH1 0x4 PUSH2 0x21FC JUMP JUMPDEST PUSH2 0xDA2 JUMP JUMPDEST PUSH2 0x1FD PUSH2 0x375 CALLDATASIZE PUSH1 0x4 PUSH2 0x2239 JUMP JUMPDEST PUSH2 0xF04 JUMP JUMPDEST PUSH2 0x225 PUSH2 0x105C JUMP JUMPDEST PUSH2 0x1FD PUSH2 0x390 CALLDATASIZE PUSH1 0x4 PUSH2 0x21FC JUMP JUMPDEST PUSH2 0x1068 JUMP JUMPDEST PUSH2 0x1FD PUSH2 0x3A3 CALLDATASIZE PUSH1 0x4 PUSH2 0x204E JUMP JUMPDEST PUSH2 0x10B7 JUMP JUMPDEST PUSH2 0x1FD PUSH2 0x3B6 CALLDATASIZE PUSH1 0x4 PUSH2 0x229D JUMP JUMPDEST PUSH2 0x120E JUMP JUMPDEST PUSH2 0x207 PUSH2 0x3C9 CALLDATASIZE PUSH1 0x4 PUSH2 0x204E JUMP JUMPDEST PUSH2 0x12DB JUMP JUMPDEST PUSH2 0x1FD PUSH2 0x3DC CALLDATASIZE PUSH1 0x4 PUSH2 0x21FC JUMP JUMPDEST PUSH2 0x1327 JUMP JUMPDEST PUSH2 0x225 PUSH2 0x1442 JUMP JUMPDEST PUSH2 0x1FD PUSH2 0x3F7 CALLDATASIZE PUSH1 0x4 PUSH2 0x22E1 JUMP JUMPDEST PUSH2 0x158B JUMP JUMPDEST PUSH2 0x207 PUSH2 0x40A CALLDATASIZE PUSH1 0x4 PUSH2 0x204E JUMP JUMPDEST PUSH2 0x166B JUMP JUMPDEST PUSH2 0x225 PUSH2 0x1692 JUMP JUMPDEST PUSH2 0x1FD PUSH2 0x425 CALLDATASIZE PUSH1 0x4 PUSH2 0x204E JUMP JUMPDEST PUSH2 0x16F1 JUMP JUMPDEST PUSH2 0x433 CALLER PUSH2 0x599 JUMP JUMPDEST PUSH2 0x469 JUMPI PUSH1 0x40 MLOAD PUSH32 0x4D371DC700000000000000000000000000000000000000000000000000000000 DUP2 MSTORE PUSH1 0x4 ADD PUSH1 0x40 MLOAD DUP1 SWAP2 SUB SWAP1 REVERT JUMPDEST PUSH2 0x472 DUP2 PUSH2 0xD24 JUMP JUMPDEST PUSH2 0x492 JUMPI PUSH2 0x481 PUSH1 0x5 DUP3 PUSH2 0x178B JUMP JUMPDEST ISZERO PUSH2 0x492 JUMPI JUMPDEST PUSH2 0x492 PUSH1 0x2 DUP3 PUSH2 0x181D JUMP JUMPDEST POP JUMP JUMPDEST PUSH1 0x60 PUSH1 0x0 PUSH1 0x1 ADD DUP1 SLOAD PUSH2 0x4A7 SWAP1 PUSH2 0x2355 JUMP JUMPDEST DUP1 PUSH1 0x1F ADD PUSH1 0x20 DUP1 SWAP2 DIV MUL PUSH1 0x20 ADD PUSH1 0x40 MLOAD SWAP1 DUP2 ADD PUSH1 0x40 MSTORE DUP1 SWAP3 SWAP2 SWAP1 DUP2 DUP2 MSTORE PUSH1 0x20 ADD DUP3 DUP1 SLOAD PUSH2 0x4D3 SWAP1 PUSH2 0x2355 JUMP JUMPDEST DUP1 ISZERO PUSH2 0x520 JUMPI DUP1 PUSH1 0x1F LT PUSH2 0x4F5 JUMPI PUSH2 0x100 DUP1 DUP4 SLOAD DIV MUL DUP4 MSTORE SWAP2 PUSH1 0x20 ADD SWAP2 PUSH2 0x520 JUMP JUMPDEST DUP3 ADD SWAP2 SWAP1 PUSH1 0x0 MSTORE PUSH1 0x20 PUSH1 0x0 KECCAK256 SWAP1 JUMPDEST DUP2 SLOAD DUP2 MSTORE SWAP1 PUSH1 0x1 ADD SWAP1 PUSH1 0x20 ADD DUP1 DUP4 GT PUSH2 0x503 JUMPI DUP3 SWAP1 SUB PUSH1 0x1F AND DUP3 ADD SWAP2 JUMPDEST POP POP POP POP POP SWAP1 POP SWAP1 JUMP JUMPDEST PUSH1 0x60 PUSH2 0x536 PUSH1 0x5 PUSH2 0x199A JUMP JUMPDEST SWAP1 POP SWAP1 JUMP JUMPDEST PUSH1 0x0 PUSH2 0x546 CALLER PUSH2 0xD17 JUMP JUMPDEST PUSH2 0x57C JUMPI PUSH1 0x40 MLOAD PUSH32 0xC11330E600000000000000000000000000000000000000000000000000000000 DUP2 MSTORE PUSH1 0x4 ADD PUSH1 0x40 MLOAD DUP1 SWAP2 SUB SWAP1 REVERT JUMPDEST POP CALLER PUSH1 0x0 SWAP1 DUP2 MSTORE PUSH1 0xF PUSH1 0x20 MSTORE PUSH1 0x40 SWAP1 KECCAK256 SLOAD PUSH1 0x1 PUSH1 0x1 PUSH1 0xA0 SHL SUB AND SWAP1 JUMP JUMPDEST PUSH1 0x0 DUP1 SLOAD PUSH1 0x1 PUSH1 0x1 PUSH1 0xA0 SHL SUB DUP1 DUP5 AND SWAP2 AND SUB PUSH2 0x5B7 JUMPI POP PUSH1 0x1 SWAP2 SWAP1 POP JUMP JUMPDEST POP PUSH1 0x0 SWAP2 SWAP1 POP JUMP JUMPDEST PUSH1 0x0 PUSH2 0x5CC PUSH1 0x5 DUP4 PUSH2 0x178B JUMP JUMPDEST SWAP3 SWAP2 POP POP JUMP JUMPDEST PUSH2 0x5DB CALLER PUSH2 0xD17 JUMP JUMPDEST ISZERO PUSH2 0x653 JUMPI PUSH1 0x40 MLOAD PUSH3 0x461BCD PUSH1 0xE5 SHL DUP2 MSTORE PUSH1 0x20 PUSH1 0x4 DUP3 ADD MSTORE PUSH1 0x2F PUSH1 0x24 DUP3 ADD MSTORE PUSH32 0x436F6E74726163743A204164647265737320616C726561647920726567697374 PUSH1 0x44 DUP3 ADD MSTORE PUSH32 0x657265642061732070617469656E740000000000000000000000000000000000 PUSH1 0x64 DUP3 ADD MSTORE PUSH1 0x84 ADD JUMPDEST PUSH1 0x40 MLOAD DUP1 SWAP2 SUB SWAP1 REVERT JUMPDEST DUP1 MLOAD PUSH1 0x0 SUB PUSH2 0x6CA JUMPI PUSH1 0x40 MLOAD PUSH3 0x461BCD PUSH1 0xE5 SHL DUP2 MSTORE PUSH1 0x20 PUSH1 0x4 DUP3 ADD MSTORE PUSH1 0x23 PUSH1 0x24 DUP3 ADD MSTORE PUSH32 0x436F6E74726163743A20456D7074792068617368206973206E6F7420616C6C6F PUSH1 0x44 DUP3 ADD MSTORE PUSH32 0x7765640000000000000000000000000000000000000000000000000000000000 PUSH1 0x64 DUP3 ADD MSTORE PUSH1 0x84 ADD PUSH2 0x64A JUMP JUMPDEST PUSH2 0x6D6 PUSH1 0x5 CALLER DUP4 PUSH2 0x19FB JUMP JUMPDEST PUSH2 0x492 PUSH1 0x2 CALLER PUSH2 0x1A5D JUMP JUMPDEST PUSH1 0x60 PUSH2 0x6EC DUP3 PUSH2 0xD17 JUMP JUMPDEST PUSH2 0x722 JUMPI PUSH1 0x40 MLOAD PUSH32 0xC11330E600000000000000000000000000000000000000000000000000000000 DUP2 MSTORE PUSH1 0x4 ADD PUSH1 0x40 MLOAD DUP1 SWAP2 SUB SWAP1 REVERT JUMPDEST CALLER PUSH1 0x1 PUSH1 0x1 PUSH1 0xA0 SHL SUB DUP4 AND EQ DUP1 PUSH2 0x752 JUMPI POP PUSH1 0x1 PUSH1 0x1 PUSH1 0xA0 SHL SUB DUP3 DUP2 AND PUSH1 0x0 SWAP1 DUP2 MSTORE PUSH1 0xF PUSH1 0x20 MSTORE PUSH1 0x40 SWAP1 KECCAK256 SLOAD AND CALLER EQ JUMPDEST DUP1 PUSH2 0x7E4 JUMPI POP PUSH1 0x1 PUSH1 0x1 PUSH1 0xA0 SHL SUB DUP3 AND PUSH1 0x0 SWAP1 DUP2 MSTORE PUSH1 0xF PUSH1 0x20 SWAP1 DUP2 MSTORE PUSH1 0x40 SWAP2 DUP3 SWAP1 KECCAK256 PUSH1 0x1 ADD DUP1 SLOAD DUP4 MLOAD DUP2 DUP5 MUL DUP2 ADD DUP5 ADD SWAP1 SWAP5 MSTORE DUP1 DUP5 MSTORE PUSH2 0x7DE SWAP4 CALLER SWAP4 SWAP1 SWAP3 SWAP2 SWAP1 DUP4 ADD DUP3 DUP3 DUP1 ISZERO PUSH2 0x7CB JUMPI PUSH1 0x20 MUL DUP3 ADD SWAP2 SWAP1 PUSH1 0x0 MSTORE PUSH1 0x20 PUSH1 0x0 KECCAK256 SWAP1 JUMPDEST DUP2 SLOAD PUSH1 0x1 PUSH1 0x1 PUSH1 0xA0 SHL SUB AND DUP2 MSTORE PUSH1 0x1 SWAP1 SWAP2 ADD SWAP1 PUSH1 0x20 ADD DUP1 DUP4 GT PUSH2 0x7AD JUMPI JUMPDEST POP POP POP POP POP PUSH2 0x1B10 SWAP1 SWAP2 SWAP1 PUSH4 0xFFFFFFFF AND JUMP JUMPDEST PUSH1 0x0 NOT EQ ISZERO JUMPDEST ISZERO PUSH2 0x894 JUMPI PUSH1 0x1 PUSH1 0x1 PUSH1 0xA0 SHL SUB DUP3 AND PUSH1 0x0 SWAP1 DUP2 MSTORE PUSH1 0xF PUSH1 0x20 MSTORE PUSH1 0x40 SWAP1 KECCAK256 PUSH1 0x2 ADD DUP1 SLOAD PUSH2 0x80F SWAP1 PUSH2 0x2355 JUMP JUMPDEST DUP1 PUSH1 0x1F ADD PUSH1 0x20 DUP1 SWAP2 DIV MUL PUSH1 0x20 ADD PUSH1 0x40 MLOAD SWAP1 DUP2 ADD PUSH1 0x40 MSTORE DUP1 SWAP3 SWAP2 SWAP1 DUP2 DUP2 MSTORE PUSH1 0x20 ADD DUP3 DUP1 SLOAD PUSH2 0x83B SWAP1 PUSH2 0x2355 JUMP JUMPDEST DUP1 ISZERO PUSH2 0x888 JUMPI DUP1 PUSH1 0x1F LT PUSH2 0x85D JUMPI PUSH2 0x100 DUP1 DUP4 SLOAD DIV MUL DUP4 MSTORE SWAP2 PUSH1 0x20 ADD SWAP2 PUSH2 0x888 JUMP JUMPDEST DUP3 ADD SWAP2 SWAP1 PUSH1 0x0 MSTORE PUSH1 0x20 PUSH1 0x0 KECCAK256 SWAP1 JUMPDEST DUP2 SLOAD DUP2 MSTORE SWAP1 PUSH1 0x1 ADD SWAP1 PUSH1 0x20 ADD DUP1 DUP4 GT PUSH2 0x86B JUMPI DUP3 SWAP1 SUB PUSH1 0x1F AND DUP3 ADD SWAP2 JUMPDEST POP POP POP POP POP SWAP1 POP SWAP2 SWAP1 POP JUMP JUMPDEST PUSH1 0x40 MLOAD PUSH3 0x461BCD PUSH1 0xE5 SHL DUP2 MSTORE PUSH1 0x20 PUSH1 0x4 DUP3 ADD MSTORE PUSH1 0xB PUSH1 0x24 DUP3 ADD MSTORE PUSH32 0x4E6F7420416C6C6F776564000000000000000000000000000000000000000000 PUSH1 0x44 DUP3 ADD MSTORE PUSH1 0x64 ADD PUSH2 0x64A JUMP JUMPDEST PUSH1 0x60 PUSH2 0x8E7 DUP3 PUSH2 0xD17 JUMP JUMPDEST PUSH2 0x91D JUMPI PUSH1 0x40 MLOAD PUSH32 0xC11330E600000000000000000000000000000000000000000000000000000000 DUP2 MSTORE PUSH1 0x4 ADD PUSH1 0x40 MLOAD DUP1 SWAP2 SUB SWAP1 REVERT JUMPDEST CALLER PUSH1 0x1 PUSH1 0x1 PUSH1 0xA0 SHL SUB DUP4 AND EQ DUP1 PUSH2 0x94D JUMPI POP PUSH1 0x1 PUSH1 0x1 PUSH1 0xA0 SHL SUB DUP3 DUP2 AND PUSH1 0x0 SWAP1 DUP2 MSTORE PUSH1 0xF PUSH1 0x20 MSTORE PUSH1 0x40 SWAP1 KECCAK256 SLOAD AND CALLER EQ JUMPDEST DUP1 PUSH2 0x9DD JUMPI POP PUSH1 0x1 PUSH1 0x1 PUSH1 0xA0 SHL SUB DUP3 AND PUSH1 0x0 SWAP1 DUP2 MSTORE PUSH1 0xF PUSH1 0x20 SWAP1 DUP2 MSTORE PUSH1 0x40 SWAP2 DUP3 SWAP1 KECCAK256 PUSH1 0x1 ADD DUP1 SLOAD DUP4 MLOAD DUP2 DUP5 MUL DUP2 ADD DUP5 ADD SWAP1 SWAP5 MSTORE DUP1 DUP5 MSTORE PUSH2 0x9D7 SWAP4 CALLER SWAP4 SWAP1 SWAP3 SWAP2 SWAP1 DUP4 ADD DUP3 DUP3 DUP1 ISZERO PUSH2 0x7CB JUMPI PUSH1 0x20 MUL DUP3 ADD SWAP2 SWAP1 PUSH1 0x0 MSTORE PUSH1 0x20 PUSH1 0x0 KECCAK256 SWAP1 DUP2 SLOAD PUSH1 0x1 PUSH1 0x1 PUSH1 0xA0 SHL SUB AND DUP2 MSTORE PUSH1 0x1 SWAP1 SWAP2 ADD SWAP1 PUSH1 0x20 ADD DUP1 DUP4 GT PUSH2 0x7AD JUMPI POP POP POP POP POP PUSH2 0x1B10 SWAP1 SWAP2 SWAP1 PUSH4 0xFFFFFFFF AND JUMP JUMPDEST PUSH1 0x0 NOT EQ ISZERO JUMPDEST ISZERO PUSH2 0x894 JUMPI PUSH2 0x5CC PUSH1 0xB DUP4 PUSH2 0x1B73 JUMP JUMPDEST PUSH2 0x9F6 CALLER PUSH2 0xD17 JUMP JUMPDEST PUSH2 0xA2C JUMPI PUSH1 0x40 MLOAD PUSH32 0xC11330E600000000000000000000000000000000000000000000000000000000 DUP2 MSTORE PUSH1 0x4 ADD PUSH1 0x40 MLOAD DUP1 SWAP2 SUB SWAP1 REVERT JUMPDEST CALLER PUSH1 0x0 DUP2 DUP2 MSTORE PUSH1 0xF PUSH1 0x20 SWAP1 DUP2 MSTORE PUSH1 0x40 DUP1 DUP4 KECCAK256 DUP1 SLOAD PUSH32 0xFFFFFFFFFFFFFFFFFFFFFFFF0000000000000000000000000000000000000000 DUP2 AND DUP7 OR SWAP1 SWAP2 SSTORE PUSH1 0x1 PUSH1 0x1 PUSH1 0xA0 SHL SUB AND DUP1 DUP5 MSTORE PUSH1 0xA SWAP1 SWAP3 MSTORE SWAP1 SWAP2 KECCAK256 SWAP1 SWAP2 PUSH2 0xA88 SWAP2 SWAP1 PUSH2 0x181D JUMP JUMPDEST PUSH2 0xA94 PUSH1 0xB CALLER DUP6 PUSH2 0x1A52 JUMP JUMPDEST CALLER PUSH1 0x0 SWAP1 DUP2 MSTORE PUSH1 0xF PUSH1 0x20 MSTORE PUSH1 0x40 SWAP1 KECCAK256 PUSH1 0x2 ADD PUSH2 0xAB0 DUP4 DUP3 PUSH2 0x23F6 JUMP JUMPDEST POP POP POP POP JUMP JUMPDEST PUSH1 0x1 PUSH1 0x1 PUSH1 0xA0 SHL SUB DUP2 AND PUSH1 0x0 SWAP1 DUP2 MSTORE PUSH1 0x3 PUSH1 0x20 MSTORE PUSH1 0x40 DUP2 KECCAK256 SLOAD PUSH1 0xFF AND PUSH2 0x5CC JUMP JUMPDEST PUSH2 0xAE0 CALLER PUSH2 0x599 JUMP JUMPDEST PUSH2 0xB16 JUMPI PUSH1 0x40 MLOAD PUSH32 0x4D371DC700000000000000000000000000000000000000000000000000000000 DUP2 MSTORE PUSH1 0x4 ADD PUSH1 0x40 MLOAD DUP1 SWAP2 SUB SWAP1 REVERT JUMPDEST PUSH2 0xB1F DUP2 PUSH2 0xAB6 JUMP JUMPDEST PUSH2 0xB6B JUMPI PUSH1 0x40 MLOAD PUSH3 0x461BCD PUSH1 0xE5 SHL DUP2 MSTORE PUSH1 0x20 PUSH1 0x4 DUP3 ADD MSTORE PUSH1 0x1F PUSH1 0x24 DUP3 ADD MSTORE PUSH32 0x436F6E74726163743A20446F63746F72206E6F74207265676973746572656400 PUSH1 0x44 DUP3 ADD MSTORE PUSH1 0x64 ADD PUSH2 0x64A JUMP JUMPDEST PUSH2 0x487 PUSH1 0x5 DUP3 PUSH2 0x1B86 JUMP JUMPDEST PUSH1 0x10 SLOAD PUSH1 0xFF AND ISZERO PUSH2 0xBC9 JUMPI PUSH1 0x40 MLOAD PUSH3 0x461BCD PUSH1 0xE5 SHL DUP2 MSTORE PUSH1 0x20 PUSH1 0x4 DUP3 ADD MSTORE PUSH1 0x1D PUSH1 0x24 DUP3 ADD MSTORE PUSH32 0x436F6E747261637420616C726561647920696E697469616C697A656421000000 PUSH1 0x44 DUP3 ADD MSTORE PUSH1 0x64 ADD PUSH2 0x64A JUMP JUMPDEST PUSH1 0x0 DUP1 SLOAD PUSH32 0xFFFFFFFFFFFFFFFFFFFFFFFF0000000000000000000000000000000000000000 AND CALLER OR SWAP1 SSTORE PUSH1 0x10 DUP1 SLOAD PUSH32 0xFFFFFFFFFFFFFFFFFFFFFFFFFFFFFFFFFFFFFFFFFFFFFFFFFFFFFFFFFFFFFF00 AND PUSH1 0x1 OR SWAP1 SSTORE JUMP JUMPDEST PUSH2 0xC29 CALLER PUSH2 0xD17 JUMP JUMPDEST PUSH2 0xC5F JUMPI PUSH1 0x40 MLOAD PUSH32 0xC11330E600000000000000000000000000000000000000000000000000000000 DUP2 MSTORE PUSH1 0x4 ADD PUSH1 0x40 MLOAD DUP1 SWAP2 SUB SWAP1 REVERT JUMPDEST PUSH2 0x492 PUSH1 0xB CALLER DUP4 PUSH2 0x1A52 JUMP JUMPDEST PUSH1 0x60 PUSH2 0xC76 CALLER PUSH2 0xD17 JUMP JUMPDEST PUSH2 0xCAC JUMPI PUSH1 0x40 MLOAD PUSH32 0xC11330E600000000000000000000000000000000000000000000000000000000 DUP2 MSTORE PUSH1 0x4 ADD PUSH1 0x40 MLOAD DUP1 SWAP2 SUB SWAP1 REVERT JUMPDEST CALLER PUSH1 0x0 SWAP1 DUP2 MSTORE PUSH1 0xF PUSH1 0x20 SWAP1 DUP2 MSTORE PUSH1 0x40 SWAP2 DUP3 SWAP1 KECCAK256 PUSH1 0x1 ADD DUP1 SLOAD DUP4 MLOAD DUP2 DUP5 MUL DUP2 ADD DUP5 ADD SWAP1 SWAP5 MSTORE DUP1 DUP5 MSTORE SWAP1 SWAP2 DUP4 ADD DUP3 DUP3 DUP1 ISZERO PUSH2 0x520 JUMPI PUSH1 0x20 MUL DUP3 ADD SWAP2 SWAP1 PUSH1 0x0 MSTORE PUSH1 0x20 PUSH1 0x0 KECCAK256 SWAP1 JUMPDEST DUP2 SLOAD PUSH1 0x1 PUSH1 0x1 PUSH1 0xA0 SHL SUB AND DUP2 MSTORE PUSH1 0x1 SWAP1 SWAP2 ADD SWAP1 PUSH1 0x20 ADD DUP1 DUP4 GT PUSH2 0xCF0 JUMPI POP POP POP POP POP SWAP1 POP SWAP1 JUMP JUMPDEST PUSH1 0x0 PUSH2 0x5CC PUSH1 0xB DUP4 PUSH2 0x178B JUMP JUMPDEST PUSH1 0x0 PUSH2 0xD31 PUSH1 0x5 DUP4 PUSH2 0x178B JUMP JUMPDEST PUSH2 0xD3D JUMPI POP PUSH1 0x0 SWAP2 SWAP1 POP JUMP JUMPDEST PUSH1 0x1 PUSH1 0x1 PUSH1 0xA0 SHL SUB DUP3 AND PUSH1 0x0 SWAP1 DUP2 MSTORE PUSH1 0x3 PUSH1 0x20 MSTORE PUSH1 0x40 SWAP1 KECCAK256 SLOAD PUSH1 0xFF AND ISZERO PUSH2 0xD66 JUMPI POP PUSH1 0x0 SWAP2 SWAP1 POP JUMP JUMPDEST PUSH1 0x1 PUSH1 0x1 PUSH1 0xA0 SHL SUB DUP3 AND PUSH1 0x0 SWAP1 DUP2 MSTORE PUSH1 0x9 PUSH1 0x20 MSTORE PUSH1 0x40 SWAP1 KECCAK256 DUP1 SLOAD PUSH2 0xD89 SWAP1 PUSH2 0x2355 JUMP JUMPDEST SWAP1 POP PUSH1 0x0 SUB PUSH2 0xD9A JUMPI POP PUSH1 0x0 SWAP2 SWAP1 POP JUMP JUMPDEST POP PUSH1 0x1 SWAP2 SWAP1 POP JUMP JUMPDEST PUSH2 0xDAD PUSH1 0x5 CALLER PUSH2 0x178B JUMP JUMPDEST PUSH2 0xDE3 JUMPI PUSH1 0x40 MLOAD PUSH32 0xFE2FC9C600000000000000000000000000000000000000000000000000000000 DUP2 MSTORE PUSH1 0x4 ADD PUSH1 0x40 MLOAD DUP1 SWAP2 SUB SWAP1 REVERT JUMPDEST CALLER PUSH1 0x0 SWAP1 DUP2 MSTORE PUSH1 0x3 PUSH1 0x20 MSTORE PUSH1 0x40 SWAP1 KECCAK256 SLOAD PUSH1 0xFF AND ISZERO PUSH2 0xE2D JUMPI PUSH1 0x40 MLOAD PUSH32 0xF873D3B700000000000000000000000000000000000000000000000000000000 DUP2 MSTORE PUSH1 0x4 ADD PUSH1 0x40 MLOAD DUP1 SWAP2 SUB SWAP1 REVERT JUMPDEST CALLER PUSH1 0x0 SWAP1 DUP2 MSTORE PUSH1 0x9 PUSH1 0x20 MSTORE PUSH1 0x40 SWAP1 KECCAK256 DUP1 SLOAD PUSH2 0xE47 SWAP1 PUSH2 0x2355 JUMP JUMPDEST SWAP1 POP PUSH1 0x0 SUB PUSH2 0xE82 JUMPI PUSH1 0x40 MLOAD PUSH32 0xA30132D500000000000000000000000000000000000000000000000000000000 DUP2 MSTORE PUSH1 0x4 ADD PUSH1 0x40 MLOAD DUP1 SWAP2 SUB SWAP1 REVERT JUMPDEST DUP1 MLOAD PUSH1 0x0 SUB PUSH2 0xEF8 JUMPI PUSH1 0x40 MLOAD PUSH3 0x461BCD PUSH1 0xE5 SHL DUP2 MSTORE PUSH1 0x20 PUSH1 0x4 DUP3 ADD MSTORE PUSH1 0x24 DUP1 DUP3 ADD MSTORE PUSH32 0x436F6E74726163743A20456D7074792068617368206973206E6F7420616C6C6F PUSH1 0x44 DUP3 ADD MSTORE PUSH32 0x7765642100000000000000000000000000000000000000000000000000000000 PUSH1 0x64 DUP3 ADD MSTORE PUSH1 0x84 ADD PUSH2 0x64A JUMP JUMPDEST PUSH2 0x492 PUSH1 0x5 CALLER DUP4 PUSH2 0x1A52 JUMP JUMPDEST PUSH2 0xF0D CALLER PUSH2 0x5BF JUMP JUMPDEST DUP1 PUSH2 0xF1C JUMPI POP PUSH2 0xF1C CALLER PUSH2 0xD24 JUMP JUMPDEST ISZERO PUSH2 0xF8F JUMPI PUSH1 0x40 MLOAD PUSH3 0x461BCD PUSH1 0xE5 SHL DUP2 MSTORE PUSH1 0x20 PUSH1 0x4 DUP3 ADD MSTORE PUSH1 0x2E PUSH1 0x24 DUP3 ADD MSTORE PUSH32 0x436F6E74726163743A204164647265737320616C726561647920726567697374 PUSH1 0x44 DUP3 ADD MSTORE PUSH32 0x6572656420617320646F63746F72000000000000000000000000000000000000 PUSH1 0x64 DUP3 ADD MSTORE PUSH1 0x84 ADD PUSH2 0x64A JUMP JUMPDEST DUP2 MLOAD PUSH1 0x0 SUB PUSH2 0x1006 JUMPI PUSH1 0x40 MLOAD PUSH3 0x461BCD PUSH1 0xE5 SHL DUP2 MSTORE PUSH1 0x20 PUSH1 0x4 DUP3 ADD MSTORE PUSH1 0x23 PUSH1 0x24 DUP3 ADD MSTORE PUSH32 0x436F6E74726163743A20456D7074792068617368206973206E6F7420616C6C6F PUSH1 0x44 DUP3 ADD MSTORE PUSH32 0x7765640000000000000000000000000000000000000000000000000000000000 PUSH1 0x64 DUP3 ADD MSTORE PUSH1 0x84 ADD PUSH2 0x64A JUMP JUMPDEST PUSH2 0x1012 PUSH1 0xB CALLER DUP5 PUSH2 0x19FB JUMP JUMPDEST CALLER PUSH1 0x0 DUP2 DUP2 MSTORE PUSH1 0xF PUSH1 0x20 MSTORE PUSH1 0x40 SWAP1 KECCAK256 DUP1 SLOAD PUSH32 0xFFFFFFFFFFFFFFFFFFFFFFFF0000000000000000000000000000000000000000 AND SWAP1 SWAP2 OR DUP2 SSTORE PUSH1 0x2 ADD PUSH2 0x1057 DUP3 DUP3 PUSH2 0x23F6 JUMP JUMPDEST POP POP POP JUMP JUMPDEST PUSH1 0x60 PUSH2 0x536 PUSH1 0xB PUSH2 0x199A JUMP JUMPDEST PUSH2 0x1071 CALLER PUSH2 0x599 JUMP JUMPDEST PUSH2 0x10A7 JUMPI PUSH1 0x40 MLOAD PUSH32 0x4D371DC700000000000000000000000000000000000000000000000000000000 DUP2 MSTORE PUSH1 0x4 ADD PUSH1 0x40 MLOAD DUP1 SWAP2 SUB SWAP1 REVERT JUMPDEST PUSH1 0x1 PUSH2 0x10B3 DUP3 DUP3 PUSH2 0x23F6 JUMP JUMPDEST POP POP JUMP JUMPDEST PUSH2 0x10C0 CALLER PUSH2 0xD17 JUMP JUMPDEST PUSH2 0x10F6 JUMPI PUSH1 0x40 MLOAD PUSH32 0xC11330E600000000000000000000000000000000000000000000000000000000 DUP2 MSTORE PUSH1 0x4 ADD PUSH1 0x40 MLOAD DUP1 SWAP2 SUB SWAP1 REVERT JUMPDEST PUSH2 0x10FF DUP2 PUSH2 0xD24 JUMP JUMPDEST PUSH2 0x1135 JUMPI PUSH1 0x40 MLOAD PUSH32 0xFE2FC9C600000000000000000000000000000000000000000000000000000000 DUP2 MSTORE PUSH1 0x4 ADD PUSH1 0x40 MLOAD DUP1 SWAP2 SUB SWAP1 REVERT JUMPDEST CALLER PUSH1 0x0 SWAP1 DUP2 MSTORE PUSH1 0xF PUSH1 0x20 SWAP1 DUP2 MSTORE PUSH1 0x40 SWAP2 DUP3 SWAP1 KECCAK256 PUSH1 0x1 ADD DUP1 SLOAD DUP4 MLOAD DUP2 DUP5 MUL DUP2 ADD DUP5 ADD SWAP1 SWAP5 MSTORE DUP1 DUP5 MSTORE PUSH2 0x11B2 SWAP4 DUP6 SWAP4 SWAP1 SWAP3 SWAP2 SWAP1 DUP4 ADD DUP3 DUP3 DUP1 ISZERO PUSH2 0x119F JUMPI PUSH1 0x20 MUL DUP3 ADD SWAP2 SWAP1 PUSH1 0x0 MSTORE PUSH1 0x20 PUSH1 0x0 KECCAK256 SWAP1 JUMPDEST DUP2 SLOAD PUSH1 0x1 PUSH1 0x1 PUSH1 0xA0 SHL SUB AND DUP2 MSTORE PUSH1 0x1 SWAP1 SWAP2 ADD SWAP1 PUSH1 0x20 ADD DUP1 DUP4 GT PUSH2 0x1181 JUMPI JUMPDEST POP POP POP POP POP PUSH2 0x1C0C SWAP1 SWAP2 SWAP1 PUSH4 0xFFFFFFFF AND JUMP JUMPDEST PUSH2 0x492 JUMPI CALLER PUSH1 0x0 SWAP1 DUP2 MSTORE PUSH1 0xF PUSH1 0x20 SWAP1 DUP2 MSTORE PUSH1 0x40 DUP3 KECCAK256 PUSH1 0x1 SWAP1 DUP2 ADD DUP1 SLOAD SWAP2 DUP3 ADD DUP2 SSTORE DUP4 MSTORE SWAP2 KECCAK256 ADD DUP1 SLOAD PUSH1 0x1 PUSH1 0x1 PUSH1 0xA0 SHL SUB DUP4 AND PUSH32 0xFFFFFFFFFFFFFFFFFFFFFFFF0000000000000000000000000000000000000000 SWAP1 SWAP2 AND OR SWAP1 SSTORE POP JUMP JUMPDEST PUSH2 0x1217 DUP3 PUSH2 0xD17 JUMP JUMPDEST PUSH2 0x124D JUMPI PUSH1 0x40 MLOAD PUSH32 0xC11330E600000000000000000000000000000000000000000000000000000000 DUP2 MSTORE PUSH1 0x4 ADD PUSH1 0x40 MLOAD DUP1 SWAP2 SUB SWAP1 REVERT JUMPDEST PUSH1 0x1 PUSH1 0x1 PUSH1 0xA0 SHL SUB DUP3 DUP2 AND PUSH1 0x0 SWAP1 DUP2 MSTORE PUSH1 0xF PUSH1 0x20 MSTORE PUSH1 0x40 SWAP1 KECCAK256 SLOAD AND CALLER EQ PUSH2 0x12B6 JUMPI PUSH1 0x40 MLOAD PUSH3 0x461BCD PUSH1 0xE5 SHL DUP2 MSTORE PUSH1 0x20 PUSH1 0x4 DUP3 ADD MSTORE PUSH1 0xB PUSH1 0x24 DUP3 ADD MSTORE PUSH32 0x4E6F7420416C6C6F776564000000000000000000000000000000000000000000 PUSH1 0x44 DUP3 ADD MSTORE PUSH1 0x64 ADD PUSH2 0x64A JUMP JUMPDEST PUSH1 0x1 PUSH1 0x1 PUSH1 0xA0 SHL SUB DUP3 AND PUSH1 0x0 SWAP1 DUP2 MSTORE PUSH1 0xF PUSH1 0x20 MSTORE PUSH1 0x40 SWAP1 KECCAK256 PUSH1 0x2 ADD PUSH2 0x1057 DUP3 DUP3 PUSH2 0x23F6 JUMP JUMPDEST PUSH1 0x60 PUSH2 0x12E6 DUP3 PUSH2 0x5BF JUMP JUMPDEST PUSH2 0x131C JUMPI PUSH1 0x40 MLOAD PUSH32 0xFE2FC9C600000000000000000000000000000000000000000000000000000000 DUP2 MSTORE PUSH1 0x4 ADD PUSH1 0x40 MLOAD DUP1 SWAP2 SUB SWAP1 REVERT JUMPDEST PUSH2 0x5CC PUSH1 0x5 DUP4 PUSH2 0x1B73 JUMP JUMPDEST DUP1 MLOAD PUSH1 0x0 SUB PUSH2 0x139E JUMPI PUSH1 0x40 MLOAD PUSH3 0x461BCD PUSH1 0xE5 SHL DUP2 MSTORE PUSH1 0x20 PUSH1 0x4 DUP3 ADD MSTORE PUSH1 0x2A PUSH1 0x24 DUP3 ADD MSTORE PUSH32 0x436F6E74726163743A20456D707479207075626C6963206B6579206973206E6F PUSH1 0x44 DUP3 ADD MSTORE PUSH32 0x7420616C6C6F7765642100000000000000000000000000000000000000000000 PUSH1 0x64 DUP3 ADD MSTORE PUSH1 0x84 ADD PUSH2 0x64A JUMP JUMPDEST PUSH2 0x13A9 PUSH1 0x5 CALLER PUSH2 0x178B JUMP JUMPDEST PUSH2 0x13DF JUMPI PUSH1 0x40 MLOAD PUSH32 0xFE2FC9C600000000000000000000000000000000000000000000000000000000 DUP2 MSTORE PUSH1 0x4 ADD PUSH1 0x40 MLOAD DUP1 SWAP2 SUB SWAP1 REVERT JUMPDEST CALLER PUSH1 0x0 SWAP1 DUP2 MSTORE PUSH1 0x3 PUSH1 0x20 MSTORE PUSH1 0x40 SWAP1 KECCAK256 SLOAD PUSH1 0xFF AND ISZERO PUSH2 0x1429 JUMPI PUSH1 0x40 MLOAD PUSH32 0xF873D3B700000000000000000000000000000000000000000000000000000000 DUP2 MSTORE PUSH1 0x4 ADD PUSH1 0x40 MLOAD DUP1 SWAP2 SUB SWAP1 REVERT JUMPDEST CALLER PUSH1 0x0 SWAP1 DUP2 MSTORE PUSH1 0x9 PUSH1 0x20 MSTORE PUSH1 0x40 SWAP1 KECCAK256 PUSH2 0x10B3 DUP3 DUP3 PUSH2 0x23F6 JUMP JUMPDEST PUSH1 0x60 PUSH2 0x144F PUSH1 0x5 CALLER PUSH2 0x178B JUMP JUMPDEST PUSH2 0x1485 JUMPI PUSH1 0x40 MLOAD PUSH32 0xFE2FC9C600000000000000000000000000000000000000000000000000000000 DUP2 MSTORE PUSH1 0x4 ADD PUSH1 0x40 MLOAD DUP1 SWAP2 SUB SWAP1 REVERT JUMPDEST CALLER PUSH1 0x0 SWAP1 DUP2 MSTORE PUSH1 0x3 PUSH1 0x20 MSTORE PUSH1 0x40 SWAP1 KECCAK256 SLOAD PUSH1 0xFF AND ISZERO PUSH2 0x14CF JUMPI PUSH1 0x40 MLOAD PUSH32 0xF873D3B700000000000000000000000000000000000000000000000000000000 DUP2 MSTORE PUSH1 0x4 ADD PUSH1 0x40 MLOAD DUP1 SWAP2 SUB SWAP1 REVERT JUMPDEST CALLER PUSH1 0x0 SWAP1 DUP2 MSTORE PUSH1 0x9 PUSH1 0x20 MSTORE PUSH1 0x40 SWAP1 KECCAK256 DUP1 SLOAD PUSH2 0x14E9 SWAP1 PUSH2 0x2355 JUMP JUMPDEST SWAP1 POP PUSH1 0x0 SUB PUSH2 0x1524 JUMPI PUSH1 0x40 MLOAD PUSH32 0xA30132D500000000000000000000000000000000000000000000000000000000 DUP2 MSTORE PUSH1 0x4 ADD PUSH1 0x40 MLOAD DUP1 SWAP2 SUB SWAP1 REVERT JUMPDEST CALLER PUSH1 0x0 SWAP1 DUP2 MSTORE PUSH1 0xA PUSH1 0x20 SWAP1 DUP2 MSTORE PUSH1 0x40 SWAP2 DUP3 SWAP1 KECCAK256 DUP1 SLOAD DUP4 MLOAD DUP2 DUP5 MUL DUP2 ADD DUP5 ADD SWAP1 SWAP5 MSTORE DUP1 DUP5 MSTORE SWAP1 SWAP2 DUP4 ADD DUP3 DUP3 DUP1 ISZERO PUSH2 0x520 JUMPI PUSH1 0x20 MUL DUP3 ADD SWAP2 SWAP1 PUSH1 0x0 MSTORE PUSH1 0x20 PUSH1 0x0 KECCAK256 SWAP1 DUP2 SLOAD PUSH1 0x1 PUSH1 0x1 PUSH1 0xA0 SHL SUB AND DUP2 MSTORE PUSH1 0x1 SWAP1 SWAP2 ADD SWAP1 PUSH1 0x20 ADD DUP1 DUP4 GT PUSH2 0xCF0 JUMPI POP POP POP POP POP SWAP1 POP SWAP1 JUMP JUMPDEST PUSH2 0x1594 CALLER PUSH2 0xD17 JUMP JUMPDEST PUSH2 0x15CA JUMPI PUSH1 0x40 MLOAD PUSH32 0xC11330E600000000000000000000000000000000000000000000000000000000 DUP2 MSTORE PUSH1 0x4 ADD PUSH1 0x40 MLOAD DUP1 SWAP2 SUB SWAP1 REVERT JUMPDEST PUSH2 0x15D3 DUP4 PUSH2 0xD24 JUMP JUMPDEST PUSH2 0x1609 JUMPI PUSH1 0x40 MLOAD PUSH32 0xFE2FC9C600000000000000000000000000000000000000000000000000000000 DUP2 MSTORE PUSH1 0x4 ADD PUSH1 0x40 MLOAD DUP1 SWAP2 SUB SWAP1 REVERT JUMPDEST PUSH2 0x1613 DUP3 DUP3 PUSH2 0x9ED JUMP JUMPDEST CALLER PUSH1 0x0 DUP2 DUP2 MSTORE PUSH1 0xF PUSH1 0x20 SWAP1 DUP2 MSTORE PUSH1 0x40 DUP1 DUP4 KECCAK256 DUP1 SLOAD PUSH32 0xFFFFFFFFFFFFFFFFFFFFFFFF0000000000000000000000000000000000000000 AND PUSH1 0x1 PUSH1 0x1 PUSH1 0xA0 SHL SUB DUP10 AND SWAP1 DUP2 OR SWAP1 SWAP2 SSTORE DUP4 MSTORE PUSH1 0xA SWAP1 SWAP2 MSTORE SWAP1 KECCAK256 PUSH2 0x1057 SWAP2 PUSH2 0x1A5D JUMP JUMPDEST PUSH1 0x1 PUSH1 0x1 PUSH1 0xA0 SHL SUB DUP2 AND PUSH1 0x0 SWAP1 DUP2 MSTORE PUSH1 0x9 PUSH1 0x20 MSTORE PUSH1 0x40 SWAP1 KECCAK256 DUP1 SLOAD PUSH1 0x60 SWAP2 SWAP1 PUSH2 0x80F SWAP1 PUSH2 0x2355 JUMP JUMPDEST PUSH1 0x2 DUP1 SLOAD PUSH1 0x40 DUP1 MLOAD PUSH1 0x20 DUP1 DUP5 MUL DUP3 ADD DUP2 ADD SWAP1 SWAP3 MSTORE DUP3 DUP2 MSTORE PUSH1 0x60 SWAP4 SWAP1 SWAP3 SWAP1 SWAP2 DUP4 ADD DUP3 DUP3 DUP1 ISZERO PUSH2 0x520 JUMPI PUSH1 0x20 MUL DUP3 ADD SWAP2 SWAP1 PUSH1 0x0 MSTORE PUSH1 0x20 PUSH1 0x0 KECCAK256 SWAP1 DUP2 SLOAD PUSH1 0x1 PUSH1 0x1 PUSH1 0xA0 SHL SUB AND DUP2 MSTORE PUSH1 0x1 SWAP1 SWAP2 ADD SWAP1 PUSH1 0x20 ADD DUP1 DUP4 GT PUSH2 0xCF0 JUMPI POP POP POP POP POP SWAP1 POP SWAP1 JUMP JUMPDEST PUSH2 0x16FA CALLER PUSH2 0xD17 JUMP JUMPDEST PUSH2 0x1730 JUMPI PUSH1 0x40 MLOAD PUSH32 0xC11330E600000000000000000000000000000000000000000000000000000000 DUP2 MSTORE PUSH1 0x4 ADD PUSH1 0x40 MLOAD DUP1 SWAP2 SUB SWAP1 REVERT JUMPDEST PUSH2 0x1739 DUP2 PUSH2 0xD24 JUMP JUMPDEST PUSH2 0x176F JUMPI PUSH1 0x40 MLOAD PUSH32 0xFE2FC9C600000000000000000000000000000000000000000000000000000000 DUP2 MSTORE PUSH1 0x4 ADD PUSH1 0x40 MLOAD DUP1 SWAP2 SUB SWAP1 REVERT JUMPDEST CALLER PUSH1 0x0 SWAP1 DUP2 MSTORE PUSH1 0xF PUSH1 0x20 MSTORE PUSH1 0x40 SWAP1 KECCAK256 PUSH2 0x10B3 SWAP1 PUSH1 0x1 ADD DUP3 PUSH2 0x1C24 JUMP JUMPDEST PUSH1 0x0 PUSH1 0x1 PUSH1 0x1 PUSH1 0xA0 SHL SUB DUP3 AND PUSH2 0x1809 JUMPI PUSH1 0x40 MLOAD PUSH3 0x461BCD PUSH1 0xE5 SHL DUP2 MSTORE PUSH1 0x20 PUSH1 0x4 DUP3 ADD MSTORE PUSH1 0x22 PUSH1 0x24 DUP3 ADD MSTORE PUSH32 0x526F6C65733A206163636F756E7420697320746865207A65726F206164647265 PUSH1 0x44 DUP3 ADD MSTORE PUSH32 0x7373000000000000000000000000000000000000000000000000000000000000 PUSH1 0x64 DUP3 ADD MSTORE PUSH1 0x84 ADD PUSH2 0x64A JUMP JUMPDEST PUSH2 0x1813 DUP4 DUP4 PUSH2 0x1DB6 JUMP JUMPDEST MLOAD ISZERO ISZERO SWAP4 SWAP3 POP POP POP JUMP JUMPDEST PUSH1 0x1 PUSH1 0x1 PUSH1 0xA0 SHL SUB DUP2 AND PUSH1 0x0 SWAP1 DUP2 MSTORE PUSH1 0x1 DUP4 ADD PUSH1 0x20 MSTORE PUSH1 0x40 SWAP1 KECCAK256 SLOAD PUSH1 0xFF AND PUSH2 0x1843 JUMPI POP POP JUMP JUMPDEST PUSH1 0x1 PUSH1 0x1 PUSH1 0xA0 SHL SUB DUP2 AND PUSH1 0x0 SWAP1 DUP2 MSTORE PUSH1 0x1 DUP1 DUP5 ADD PUSH1 0x20 SWAP1 DUP2 MSTORE PUSH1 0x40 DUP1 DUP5 KECCAK256 DUP1 SLOAD PUSH32 0xFFFFFFFFFFFFFFFFFFFFFFFFFFFFFFFFFFFFFFFFFFFFFFFFFFFFFFFFFFFFFF00 AND SWAP1 SSTORE PUSH1 0x2 DUP7 ADD SWAP1 SWAP2 MSTORE DUP3 KECCAK256 SLOAD DUP5 SLOAD SWAP1 SWAP3 SWAP2 PUSH2 0x189F SWAP2 PUSH2 0x2503 JUMP JUMPDEST SWAP1 POP PUSH1 0x0 DUP5 PUSH1 0x0 ADD DUP3 DUP2 SLOAD DUP2 LT PUSH2 0x18B8 JUMPI PUSH2 0x18B8 PUSH2 0x2516 JUMP JUMPDEST PUSH1 0x0 SWAP2 DUP3 MSTORE PUSH1 0x20 DUP1 DUP4 KECCAK256 SWAP1 SWAP2 ADD SLOAD PUSH1 0x1 PUSH1 0x1 PUSH1 0xA0 SHL SUB SWAP1 DUP2 AND DUP1 DUP5 MSTORE PUSH1 0x2 DUP10 ADD SWAP1 SWAP3 MSTORE PUSH1 0x40 DUP1 DUP5 KECCAK256 DUP8 SWAP1 SSTORE SWAP1 DUP8 AND DUP4 MSTORE DUP3 KECCAK256 SWAP2 SWAP1 SWAP2 SSTORE DUP6 SLOAD SWAP1 SWAP2 POP DUP2 SWAP1 DUP7 SWAP1 DUP6 SWAP1 DUP2 LT PUSH2 0x1907 JUMPI PUSH2 0x1907 PUSH2 0x2516 JUMP JUMPDEST PUSH1 0x0 SWAP2 DUP3 MSTORE PUSH1 0x20 SWAP1 SWAP2 KECCAK256 ADD DUP1 SLOAD PUSH32 0xFFFFFFFFFFFFFFFFFFFFFFFF0000000000000000000000000000000000000000 AND PUSH1 0x1 PUSH1 0x1 PUSH1 0xA0 SHL SUB SWAP3 SWAP1 SWAP3 AND SWAP2 SWAP1 SWAP2 OR SWAP1 SSTORE DUP5 SLOAD DUP6 SWAP1 DUP1 PUSH2 0x1959 JUMPI PUSH2 0x1959 PUSH2 0x2545 JUMP JUMPDEST PUSH1 0x0 DUP3 DUP2 MSTORE PUSH1 0x20 SWAP1 KECCAK256 DUP2 ADD PUSH1 0x0 NOT SWAP1 DUP2 ADD DUP1 SLOAD PUSH32 0xFFFFFFFFFFFFFFFFFFFFFFFF0000000000000000000000000000000000000000 AND SWAP1 SSTORE ADD SWAP1 SSTORE POP POP POP POP POP JUMP JUMPDEST DUP1 SLOAD PUSH1 0x40 DUP1 MLOAD PUSH1 0x20 DUP1 DUP5 MUL DUP3 ADD DUP2 ADD SWAP1 SWAP3 MSTORE DUP3 DUP2 MSTORE PUSH1 0x60 SWAP3 SWAP1 SWAP2 DUP5 SWAP2 SWAP1 DUP4 ADD DUP3 DUP3 DUP1 ISZERO PUSH2 0x888 JUMPI PUSH1 0x20 MUL DUP3 ADD SWAP2 SWAP1 PUSH1 0x0 MSTORE PUSH1 0x20 PUSH1 0x0 KECCAK256 SWAP1 JUMPDEST DUP2 SLOAD PUSH1 0x1 PUSH1 0x1 PUSH1 0xA0 SHL SUB AND DUP2 MSTORE PUSH1 0x1 SWAP1 SWAP2 ADD SWAP1 PUSH1 0x20 ADD DUP1 DUP4 GT PUSH2 0x19D2 JUMPI POP POP POP POP POP SWAP1 POP SWAP2 SWAP1 POP JUMP JUMPDEST PUSH2 0x1A05 DUP4 DUP4 PUSH2 0x178B JUMP JUMPDEST ISZERO PUSH2 0x1A52 JUMPI PUSH1 0x40 MLOAD PUSH3 0x461BCD PUSH1 0xE5 SHL DUP2 MSTORE PUSH1 0x20 PUSH1 0x4 DUP3 ADD MSTORE PUSH1 0x1F PUSH1 0x24 DUP3 ADD MSTORE PUSH32 0x526F6C65733A206163636F756E7420616C72656164792068617320726F6C6500 PUSH1 0x44 DUP3 ADD MSTORE PUSH1 0x64 ADD PUSH2 0x64A JUMP JUMPDEST PUSH2 0x1057 DUP4 DUP4 DUP4 PUSH2 0x1E65 JUMP JUMPDEST PUSH1 0x1 PUSH1 0x1 PUSH1 0xA0 SHL SUB DUP2 AND PUSH1 0x0 SWAP1 DUP2 MSTORE PUSH1 0x1 DUP4 ADD PUSH1 0x20 MSTORE PUSH1 0x40 SWAP1 KECCAK256 SLOAD PUSH1 0xFF AND ISZERO PUSH2 0x1A84 JUMPI POP POP JUMP JUMPDEST PUSH1 0x1 PUSH1 0x1 PUSH1 0xA0 SHL SUB AND PUSH1 0x0 DUP2 DUP2 MSTORE PUSH1 0x1 DUP4 DUP2 ADD PUSH1 0x20 SWAP1 DUP2 MSTORE PUSH1 0x40 DUP1 DUP5 KECCAK256 DUP1 SLOAD PUSH32 0xFFFFFFFFFFFFFFFFFFFFFFFFFFFFFFFFFFFFFFFFFFFFFFFFFFFFFFFFFFFFFF00 AND DUP5 OR SWAP1 SSTORE DUP6 SLOAD PUSH1 0x2 DUP8 ADD DUP4 MSTORE SWAP1 DUP5 KECCAK256 DUP2 SWAP1 SSTORE SWAP2 DUP3 ADD DUP6 SSTORE SWAP4 DUP3 MSTORE SWAP3 SWAP1 KECCAK256 SWAP1 SWAP2 ADD DUP1 SLOAD PUSH32 0xFFFFFFFFFFFFFFFFFFFFFFFF0000000000000000000000000000000000000000 AND SWAP1 SWAP2 OR SWAP1 SSTORE JUMP JUMPDEST PUSH1 0x0 DUP1 JUMPDEST DUP4 MLOAD DUP2 LT ISZERO PUSH2 0x1B68 JUMPI DUP3 PUSH1 0x1 PUSH1 0x1 PUSH1 0xA0 SHL SUB AND DUP5 DUP3 DUP2 MLOAD DUP2 LT PUSH2 0x1B39 JUMPI PUSH2 0x1B39 PUSH2 0x2516 JUMP JUMPDEST PUSH1 0x20 MUL PUSH1 0x20 ADD ADD MLOAD PUSH1 0x1 PUSH1 0x1 PUSH1 0xA0 SHL SUB AND SUB PUSH2 0x1B56 JUMPI SWAP1 POP PUSH2 0x5CC JUMP JUMPDEST DUP1 PUSH2 0x1B60 DUP2 PUSH2 0x2574 JUMP JUMPDEST SWAP2 POP POP PUSH2 0x1B14 JUMP JUMPDEST POP PUSH1 0x0 NOT SWAP4 SWAP3 POP POP POP JUMP JUMPDEST PUSH1 0x60 PUSH2 0x1B7F DUP4 DUP4 PUSH2 0x1DB6 JUMP JUMPDEST SWAP4 SWAP3 POP POP POP JUMP JUMPDEST PUSH2 0x1B90 DUP3 DUP3 PUSH2 0x178B JUMP JUMPDEST PUSH2 0x1C02 JUMPI PUSH1 0x40 MLOAD PUSH3 0x461BCD PUSH1 0xE5 SHL DUP2 MSTORE PUSH1 0x20 PUSH1 0x4 DUP3 ADD MSTORE PUSH1 0x21 PUSH1 0x24 DUP3 ADD MSTORE PUSH32 0x526F6C65733A206163636F756E7420646F6573206E6F74206861766520726F6C PUSH1 0x44 DUP3 ADD MSTORE PUSH32 0x6500000000000000000000000000000000000000000000000000000000000000 PUSH1 0x64 DUP3 ADD MSTORE PUSH1 0x84 ADD PUSH2 0x64A JUMP JUMPDEST PUSH2 0x10B3 DUP3 DUP3 PUSH2 0x1F3D JUMP JUMPDEST PUSH1 0x0 PUSH2 0x1C18 DUP4 DUP4 PUSH2 0x1B10 JUMP JUMPDEST PUSH1 0x0 NOT EQ ISZERO SWAP4 SWAP3 POP POP POP JUMP JUMPDEST PUSH1 0x0 DUP1 PUSH2 0x1C8A DUP5 DUP1 SLOAD DUP1 PUSH1 0x20 MUL PUSH1 0x20 ADD PUSH1 0x40 MLOAD SWAP1 DUP2 ADD PUSH1 0x40 MSTORE DUP1 SWAP3 SWAP2 SWAP1 DUP2 DUP2 MSTORE PUSH1 0x20 ADD DUP3 DUP1 SLOAD DUP1 ISZERO PUSH2 0x1C7F JUMPI PUSH1 0x20 MUL DUP3 ADD SWAP2 SWAP1 PUSH1 0x0 MSTORE PUSH1 0x20 PUSH1 0x0 KECCAK256 SWAP1 JUMPDEST DUP2 SLOAD PUSH1 0x1 PUSH1 0x1 PUSH1 0xA0 SHL SUB AND DUP2 MSTORE PUSH1 0x1 SWAP1 SWAP2 ADD SWAP1 PUSH1 0x20 ADD DUP1 DUP4 GT PUSH2 0x1C61 JUMPI JUMPDEST POP POP POP POP POP DUP5 PUSH2 0x1B10 JUMP JUMPDEST SWAP1 POP DUP1 NOT PUSH2 0x1C9C JUMPI PUSH1 0x0 SWAP2 POP POP PUSH2 0x5CC JUMP JUMPDEST PUSH1 0x0 DUP5 DUP1 SLOAD DUP1 PUSH1 0x20 MUL PUSH1 0x20 ADD PUSH1 0x40 MLOAD SWAP1 DUP2 ADD PUSH1 0x40 MSTORE DUP1 SWAP3 SWAP2 SWAP1 DUP2 DUP2 MSTORE PUSH1 0x20 ADD DUP3 DUP1 SLOAD DUP1 ISZERO PUSH2 0x1CF3 JUMPI PUSH1 0x20 MUL DUP3 ADD SWAP2 SWAP1 PUSH1 0x0 MSTORE PUSH1 0x20 PUSH1 0x0 KECCAK256 SWAP1 JUMPDEST DUP2 SLOAD PUSH1 0x1 PUSH1 0x1 PUSH1 0xA0 SHL SUB AND DUP2 MSTORE PUSH1 0x1 SWAP1 SWAP2 ADD SWAP1 PUSH1 0x20 ADD DUP1 DUP4 GT PUSH2 0x1CD5 JUMPI JUMPDEST POP POP POP POP POP SWAP1 POP DUP1 PUSH1 0x1 DUP3 MLOAD PUSH2 0x1D09 SWAP2 SWAP1 PUSH2 0x2503 JUMP JUMPDEST DUP2 MLOAD DUP2 LT PUSH2 0x1D19 JUMPI PUSH2 0x1D19 PUSH2 0x2516 JUMP JUMPDEST PUSH1 0x20 MUL PUSH1 0x20 ADD ADD MLOAD DUP6 DUP4 DUP2 SLOAD DUP2 LT PUSH2 0x1D33 JUMPI PUSH2 0x1D33 PUSH2 0x2516 JUMP JUMPDEST SWAP1 PUSH1 0x0 MSTORE PUSH1 0x20 PUSH1 0x0 KECCAK256 ADD PUSH1 0x0 PUSH2 0x100 EXP DUP2 SLOAD DUP2 PUSH1 0x1 PUSH1 0x1 PUSH1 0xA0 SHL SUB MUL NOT AND SWAP1 DUP4 PUSH1 0x1 PUSH1 0x1 PUSH1 0xA0 SHL SUB AND MUL OR SWAP1 SSTORE POP DUP5 DUP1 SLOAD DUP1 PUSH2 0x1D71 JUMPI PUSH2 0x1D71 PUSH2 0x2545 JUMP JUMPDEST PUSH1 0x0 DUP3 DUP2 MSTORE PUSH1 0x20 SWAP1 KECCAK256 PUSH1 0x0 NOT SWAP1 DUP3 ADD DUP2 ADD DUP1 SLOAD PUSH32 0xFFFFFFFFFFFFFFFFFFFFFFFF0000000000000000000000000000000000000000 AND SWAP1 SSTORE ADD SWAP1 SSTORE POP PUSH1 0x1 SWAP5 SWAP4 POP POP POP POP JUMP JUMPDEST PUSH1 0x1 PUSH1 0x1 PUSH1 0xA0 SHL SUB DUP2 AND PUSH1 0x0 SWAP1 DUP2 MSTORE PUSH1 0x1 DUP4 ADD PUSH1 0x20 MSTORE PUSH1 0x40 SWAP1 KECCAK256 DUP1 SLOAD PUSH1 0x60 SWAP2 SWAP1 PUSH2 0x1DDF SWAP1 PUSH2 0x2355 JUMP JUMPDEST DUP1 PUSH1 0x1F ADD PUSH1 0x20 DUP1 SWAP2 DIV MUL PUSH1 0x20 ADD PUSH1 0x40 MLOAD SWAP1 DUP2 ADD PUSH1 0x40 MSTORE DUP1 SWAP3 SWAP2 SWAP1 DUP2 DUP2 MSTORE PUSH1 0x20 ADD DUP3 DUP1 SLOAD PUSH2 0x1E0B SWAP1 PUSH2 0x2355 JUMP JUMPDEST DUP1 ISZERO PUSH2 0x1E58 JUMPI DUP1 PUSH1 0x1F LT PUSH2 0x1E2D JUMPI PUSH2 0x100 DUP1 DUP4 SLOAD DIV MUL DUP4 MSTORE SWAP2 PUSH1 0x20 ADD SWAP2 PUSH2 0x1E58 JUMP JUMPDEST DUP3 ADD SWAP2 SWAP1 PUSH1 0x0 MSTORE PUSH1 0x20 PUSH1 0x0 KECCAK256 SWAP1 JUMPDEST DUP2 SLOAD DUP2 MSTORE SWAP1 PUSH1 0x1 ADD SWAP1 PUSH1 0x20 ADD DUP1 DUP4 GT PUSH2 0x1E3B JUMPI DUP3 SWAP1 SUB PUSH1 0x1F AND DUP3 ADD SWAP2 JUMPDEST POP POP POP POP POP SWAP1 POP SWAP3 SWAP2 POP POP JUMP JUMPDEST PUSH1 0x1 PUSH1 0x1 PUSH1 0xA0 SHL SUB DUP3 AND PUSH1 0x0 SWAP1 DUP2 MSTORE PUSH1 0x3 DUP5 ADD PUSH1 0x20 MSTORE PUSH1 0x40 SWAP1 KECCAK256 SLOAD PUSH1 0xFF AND PUSH2 0x1F19 JUMPI DUP3 SLOAD PUSH1 0x1 PUSH1 0x1 PUSH1 0xA0 SHL SUB DUP4 AND PUSH1 0x0 DUP2 DUP2 MSTORE PUSH1 0x2 DUP7 ADD PUSH1 0x20 SWAP1 DUP2 MSTORE PUSH1 0x40 DUP1 DUP4 KECCAK256 SWAP5 SWAP1 SWAP5 SSTORE PUSH1 0x3 DUP8 ADD DUP2 MSTORE SWAP3 DUP2 KECCAK256 DUP1 SLOAD PUSH32 0xFFFFFFFFFFFFFFFFFFFFFFFFFFFFFFFFFFFFFFFFFFFFFFFFFFFFFFFFFFFFFF00 AND PUSH1 0x1 SWAP1 DUP2 OR SWAP1 SWAP2 SSTORE DUP7 SLOAD SWAP1 DUP2 ADD DUP8 SSTORE DUP7 DUP3 MSTORE SWAP3 SWAP1 KECCAK256 SWAP1 SWAP2 ADD DUP1 SLOAD PUSH32 0xFFFFFFFFFFFFFFFFFFFFFFFF0000000000000000000000000000000000000000 AND SWAP1 SWAP2 OR SWAP1 SSTORE JUMPDEST PUSH1 0x1 PUSH1 0x1 PUSH1 0xA0 SHL SUB DUP3 AND PUSH1 0x0 SWAP1 DUP2 MSTORE PUSH1 0x1 DUP5 ADD PUSH1 0x20 MSTORE PUSH1 0x40 SWAP1 KECCAK256 PUSH2 0xAB0 DUP3 DUP3 PUSH2 0x23F6 JUMP JUMPDEST PUSH1 0x1 PUSH1 0x1 PUSH1 0xA0 SHL SUB DUP2 AND PUSH1 0x0 SWAP1 DUP2 MSTORE PUSH1 0x3 DUP4 ADD PUSH1 0x20 MSTORE PUSH1 0x40 SWAP1 KECCAK256 SLOAD PUSH1 0xFF AND PUSH2 0x1F63 JUMPI POP POP JUMP JUMPDEST PUSH1 0x1 PUSH1 0x1 PUSH1 0xA0 SHL SUB DUP2 AND PUSH1 0x0 SWAP1 DUP2 MSTORE PUSH1 0x1 DUP4 ADD PUSH1 0x20 MSTORE PUSH1 0x40 DUP2 KECCAK256 PUSH2 0x1F86 SWAP2 PUSH2 0x1FE4 JUMP JUMPDEST PUSH1 0x1 PUSH1 0x1 PUSH1 0xA0 SHL SUB DUP2 AND PUSH1 0x0 SWAP1 DUP2 MSTORE PUSH1 0x3 DUP4 ADD PUSH1 0x20 SWAP1 DUP2 MSTORE PUSH1 0x40 DUP1 DUP4 KECCAK256 DUP1 SLOAD PUSH32 0xFFFFFFFFFFFFFFFFFFFFFFFFFFFFFFFFFFFFFFFFFFFFFFFFFFFFFFFFFFFFFF00 AND SWAP1 SSTORE PUSH1 0x2 DUP6 ADD SWAP1 SWAP2 MSTORE DUP2 KECCAK256 SLOAD DUP4 SLOAD SWAP1 SWAP2 SWAP1 PUSH2 0x189F SWAP1 PUSH1 0x1 SWAP1 PUSH2 0x2503 JUMP JUMPDEST POP DUP1 SLOAD PUSH2 0x1FF0 SWAP1 PUSH2 0x2355 JUMP JUMPDEST PUSH1 0x0 DUP3 SSTORE DUP1 PUSH1 0x1F LT PUSH2 0x2000 JUMPI POP POP JUMP JUMPDEST PUSH1 0x1F ADD PUSH1 0x20 SWAP1 DIV SWAP1 PUSH1 0x0 MSTORE PUSH1 0x20 PUSH1 0x0 KECCAK256 SWAP1 DUP2 ADD SWAP1 PUSH2 0x492 SWAP2 SWAP1 JUMPDEST DUP1 DUP3 GT ISZERO PUSH2 0x202E JUMPI PUSH1 0x0 DUP2 SSTORE PUSH1 0x1 ADD PUSH2 0x201A JUMP JUMPDEST POP SWAP1 JUMP JUMPDEST DUP1 CALLDATALOAD PUSH1 0x1 PUSH1 0x1 PUSH1 0xA0 SHL SUB DUP2 AND DUP2 EQ PUSH2 0x2049 JUMPI PUSH1 0x0 DUP1 REVERT JUMPDEST SWAP2 SWAP1 POP JUMP JUMPDEST PUSH1 0x0 PUSH1 0x20 DUP3 DUP5 SUB SLT ISZERO PUSH2 0x2060 JUMPI PUSH1 0x0 DUP1 REVERT JUMPDEST PUSH2 0x1B7F DUP3 PUSH2 0x2032 JUMP JUMPDEST PUSH1 0x0 PUSH1 0x20 DUP1 DUP4 MSTORE DUP4 MLOAD DUP1 DUP3 DUP6 ADD MSTORE PUSH1 0x0 JUMPDEST DUP2 DUP2 LT ISZERO PUSH2 0x2096 JUMPI DUP6 DUP2 ADD DUP4 ADD MLOAD DUP6 DUP3 ADD PUSH1 0x40 ADD MSTORE DUP3 ADD PUSH2 0x207A JUMP JUMPDEST POP PUSH1 0x0 PUSH1 0x40 DUP3 DUP7 ADD ADD MSTORE PUSH1 0x40 PUSH32 0xFFFFFFFFFFFFFFFFFFFFFFFFFFFFFFFFFFFFFFFFFFFFFFFFFFFFFFFFFFFFFFE0 PUSH1 0x1F DUP4 ADD AND DUP6 ADD ADD SWAP3 POP POP POP SWAP3 SWAP2 POP POP JUMP JUMPDEST PUSH1 0x20 DUP1 DUP3 MSTORE DUP3 MLOAD DUP3 DUP3 ADD DUP2 SWAP1 MSTORE PUSH1 0x0 SWAP2 SWAP1 DUP5 DUP3 ADD SWAP1 PUSH1 0x40 DUP6 ADD SWAP1 DUP5 JUMPDEST DUP2 DUP2 LT ISZERO PUSH2 0x2116 JUMPI DUP4 MLOAD PUSH1 0x1 PUSH1 0x1 PUSH1 0xA0 SHL SUB AND DUP4 MSTORE SWAP3 DUP5 ADD SWAP3 SWAP2 DUP5 ADD SWAP2 PUSH1 0x1 ADD PUSH2 0x20F1 JUMP JUMPDEST POP SWAP1 SWAP7 SWAP6 POP POP POP POP POP POP JUMP JUMPDEST PUSH32 0x4E487B7100000000000000000000000000000000000000000000000000000000 PUSH1 0x0 MSTORE PUSH1 0x41 PUSH1 0x4 MSTORE PUSH1 0x24 PUSH1 0x0 REVERT JUMPDEST PUSH1 0x0 DUP3 PUSH1 0x1F DUP4 ADD SLT PUSH2 0x2162 JUMPI PUSH1 0x0 DUP1 REVERT JUMPDEST DUP2 CALLDATALOAD PUSH8 0xFFFFFFFFFFFFFFFF DUP1 DUP3 GT ISZERO PUSH2 0x217D JUMPI PUSH2 0x217D PUSH2 0x2122 JUMP JUMPDEST PUSH1 0x40 MLOAD PUSH1 0x1F DUP4 ADD PUSH32 0xFFFFFFFFFFFFFFFFFFFFFFFFFFFFFFFFFFFFFFFFFFFFFFFFFFFFFFFFFFFFFFE0 SWAP1 DUP2 AND PUSH1 0x3F ADD AND DUP2 ADD SWAP1 DUP3 DUP3 GT DUP2 DUP4 LT OR ISZERO PUSH2 0x21C3 JUMPI PUSH2 0x21C3 PUSH2 0x2122 JUMP JUMPDEST DUP2 PUSH1 0x40 MSTORE DUP4 DUP2 MSTORE DUP7 PUSH1 0x20 DUP6 DUP9 ADD ADD GT ISZERO PUSH2 0x21DC JUMPI PUSH1 0x0 DUP1 REVERT JUMPDEST DUP4 PUSH1 0x20 DUP8 ADD PUSH1 0x20 DUP4 ADD CALLDATACOPY PUSH1 0x0 PUSH1 0x20 DUP6 DUP4 ADD ADD MSTORE DUP1 SWAP5 POP POP POP POP POP SWAP3 SWAP2 POP POP JUMP JUMPDEST PUSH1 0x0 PUSH1 0x20 DUP3 DUP5 SUB SLT ISZERO PUSH2 0x220E JUMPI PUSH1 0x0 DUP1 REVERT JUMPDEST DUP2 CALLDATALOAD PUSH8 0xFFFFFFFFFFFFFFFF DUP2 GT ISZERO PUSH2 0x2225 JUMPI PUSH1 0x0 DUP1 REVERT JUMPDEST PUSH2 0x2231 DUP5 DUP3 DUP6 ADD PUSH2 0x2151 JUMP JUMPDEST SWAP5 SWAP4 POP POP POP POP JUMP JUMPDEST PUSH1 0x0 DUP1 PUSH1 0x40 DUP4 DUP6 SUB SLT ISZERO PUSH2 0x224C JUMPI PUSH1 0x0 DUP1 REVERT JUMPDEST DUP3 CALLDATALOAD PUSH8 0xFFFFFFFFFFFFFFFF DUP1 DUP3 GT ISZERO PUSH2 0x2264 JUMPI PUSH1 0x0 DUP1 REVERT JUMPDEST PUSH2 0x2270 DUP7 DUP4 DUP8 ADD PUSH2 0x2151 JUMP JUMPDEST SWAP4 POP PUSH1 0x20 DUP6 ADD CALLDATALOAD SWAP2 POP DUP1 DUP3 GT ISZERO PUSH2 0x2286 JUMPI PUSH1 0x0 DUP1 REVERT JUMPDEST POP PUSH2 0x2293 DUP6 DUP3 DUP7 ADD PUSH2 0x2151 JUMP JUMPDEST SWAP2 POP POP SWAP3 POP SWAP3 SWAP1 POP JUMP JUMPDEST PUSH1 0x0 DUP1 PUSH1 0x40 DUP4 DUP6 SUB SLT ISZERO PUSH2 0x22B0 JUMPI PUSH1 0x0 DUP1 REVERT JUMPDEST PUSH2 0x22B9 DUP4 PUSH2 0x2032 JUMP JUMPDEST SWAP2 POP PUSH1 0x20 DUP4 ADD CALLDATALOAD PUSH8 0xFFFFFFFFFFFFFFFF DUP2 GT ISZERO PUSH2 0x22D5 JUMPI PUSH1 0x0 DUP1 REVERT JUMPDEST PUSH2 0x2293 DUP6 DUP3 DUP7 ADD PUSH2 0x2151 JUMP JUMPDEST PUSH1 0x0 DUP1 PUSH1 0x0 PUSH1 0x60 DUP5 DUP7 SUB SLT ISZERO PUSH2 0x22F6 JUMPI PUSH1 0x0 DUP1 REVERT JUMPDEST PUSH2 0x22FF DUP5 PUSH2 0x2032 JUMP JUMPDEST SWAP3 POP PUSH1 0x20 DUP5 ADD CALLDATALOAD PUSH8 0xFFFFFFFFFFFFFFFF DUP1 DUP3 GT ISZERO PUSH2 0x231C JUMPI PUSH1 0x0 DUP1 REVERT JUMPDEST PUSH2 0x2328 DUP8 DUP4 DUP9 ADD PUSH2 0x2151 JUMP JUMPDEST SWAP4 POP PUSH1 0x40 DUP7 ADD CALLDATALOAD SWAP2 POP DUP1 DUP3 GT ISZERO PUSH2 0x233E JUMPI PUSH1 0x0 DUP1 REVERT JUMPDEST POP PUSH2 0x234B DUP7 DUP3 DUP8 ADD PUSH2 0x2151 JUMP JUMPDEST SWAP2 POP POP SWAP3 POP SWAP3 POP SWAP3 JUMP JUMPDEST PUSH1 0x1 DUP2 DUP2 SHR SWAP1 DUP3 AND DUP1 PUSH2 0x2369 JUMPI PUSH1 0x7F DUP3 AND SWAP2 POP JUMPDEST PUSH1 0x20 DUP3 LT DUP2 SUB PUSH2 0x23A2 JUMPI PUSH32 0x4E487B7100000000000000000000000000000000000000000000000000000000 PUSH1 0x0 MSTORE PUSH1 0x22 PUSH1 0x4 MSTORE PUSH1 0x24 PUSH1 0x0 REVERT JUMPDEST POP SWAP2 SWAP1 POP JUMP JUMPDEST PUSH1 0x1F DUP3 GT ISZERO PUSH2 0x1057 JUMPI PUSH1 0x0 DUP2 DUP2 MSTORE PUSH1 0x20 DUP2 KECCAK256 PUSH1 0x1F DUP6 ADD PUSH1 0x5 SHR DUP2 ADD PUSH1 0x20 DUP7 LT ISZERO PUSH2 0x23CF JUMPI POP DUP1 JUMPDEST PUSH1 0x1F DUP6 ADD PUSH1 0x5 SHR DUP3 ADD SWAP2 POP JUMPDEST DUP2 DUP2 LT ISZERO PUSH2 0x23EE JUMPI DUP3 DUP2 SSTORE PUSH1 0x1 ADD PUSH2 0x23DB JUMP JUMPDEST POP POP POP POP POP POP JUMP JUMPDEST DUP2 MLOAD PUSH8 0xFFFFFFFFFFFFFFFF DUP2 GT ISZERO PUSH2 0x2410 JUMPI PUSH2 0x2410 PUSH2 0x2122 JUMP JUMPDEST PUSH2 0x2424 DUP2 PUSH2 0x241E DUP5 SLOAD PUSH2 0x2355 JUMP JUMPDEST DUP5 PUSH2 0x23A8 JUMP JUMPDEST PUSH1 0x20 DUP1 PUSH1 0x1F DUP4 GT PUSH1 0x1 DUP2 EQ PUSH2 0x2459 JUMPI PUSH1 0x0 DUP5 ISZERO PUSH2 0x2441 JUMPI POP DUP6 DUP4 ADD MLOAD JUMPDEST PUSH1 0x0 NOT PUSH1 0x3 DUP7 SWAP1 SHL SHR NOT AND PUSH1 0x1 DUP6 SWAP1 SHL OR DUP6 SSTORE PUSH2 0x23EE JUMP JUMPDEST PUSH1 0x0 DUP6 DUP2 MSTORE PUSH1 0x20 DUP2 KECCAK256 PUSH32 0xFFFFFFFFFFFFFFFFFFFFFFFFFFFFFFFFFFFFFFFFFFFFFFFFFFFFFFFFFFFFFFE0 DUP7 AND SWAP2 JUMPDEST DUP3 DUP2 LT ISZERO PUSH2 0x24A6 JUMPI DUP9 DUP7 ADD MLOAD DUP3 SSTORE SWAP5 DUP5 ADD SWAP5 PUSH1 0x1 SWAP1 SWAP2 ADD SWAP1 DUP5 ADD PUSH2 0x2487 JUMP JUMPDEST POP DUP6 DUP3 LT ISZERO PUSH2 0x24C4 JUMPI DUP8 DUP6 ADD MLOAD PUSH1 0x0 NOT PUSH1 0x3 DUP9 SWAP1 SHL PUSH1 0xF8 AND SHR NOT AND DUP2 SSTORE JUMPDEST POP POP POP POP POP PUSH1 0x1 SWAP1 DUP2 SHL ADD SWAP1 SSTORE POP JUMP JUMPDEST PUSH32 0x4E487B7100000000000000000000000000000000000000000000000000000000 PUSH1 0x0 MSTORE PUSH1 0x11 PUSH1 0x4 MSTORE PUSH1 0x24 PUSH1 0x0 REVERT JUMPDEST DUP2 DUP2 SUB DUP2 DUP2 GT ISZERO PUSH2 0x5CC JUMPI PUSH2 0x5CC PUSH2 0x24D4 JUMP JUMPDEST PUSH32 0x4E487B7100000000000000000000000000000000000000000000000000000000 PUSH1 0x0 MSTORE PUSH1 0x32 PUSH1 0x4 MSTORE PUSH1 0x24 PUSH1 0x0 REVERT JUMPDEST PUSH32 0x4E487B7100000000000000000000000000000000000000000000000000000000 PUSH1 0x0 MSTORE PUSH1 0x31 PUSH1 0x4 MSTORE PUSH1 0x24 PUSH1 0x0 REVERT JUMPDEST PUSH1 0x0 PUSH1 0x0 NOT DUP3 SUB PUSH2 0x2587 JUMPI PUSH2 0x2587 PUSH2 0x24D4 JUMP JUMPDEST POP PUSH1 0x1 ADD SWAP1 JUMP INVALID LOG2 PUSH5 0x6970667358 0x22 SLT KECCAK256 PUSH14 0x81B3A1B0369D18136BF26F1F7E7D 0xA6 SWAP15 DELEGATECALL SUB 0xD9 EXP 0xCD 0xC5 0xCB 0xFB 0xEB 0xB9 SWAP9 INVALID 0xA7 JUMPI LOG1 PUSH5 0x736F6C6343 STOP ADDMOD GT STOP CALLER "},"gasEstimates":{"creation":{"codeDepositCost":"1933600","executionCost":"2048","totalCost":"1935648"},"external":{"approveDr(address)":"2590","changeEditorAccess(address,string,string)":"infinite","disapproveDr(address)":"infinite","getAdmin()":"2376","getAdminPubKey()":"infinite","getAllDrs()":"infinite","getAllPts()":"infinite","getDrHash(address)":"infinite","getDrOfPt()":"infinite","getDrPubKey(address)":"infinite","getPatViewers()":"infinite","getPendingDrs()":"infinite","getPtGeneralHash(address)":"infinite","getPtRecordHash(address)":"infinite","getPtsOfDr()":"infinite","grantViewerAccess(address)":"infinite","initialize()":"50800","isAdmin(address)":"2599","isDoctor(address)":"infinite","isDrPending(address)":"2695","isDrRegistered(address)":"infinite","isPatient(address)":"infinite","registerDr(string)":"infinite","registerDrConfirm(string)":"infinite","registerPt(string,string)":"infinite","removeEditorAccess(string,string)":"infinite","revokeViewerAccess(address)":"infinite","setAdminPubKey(string)":"infinite","setDrHash(string)":"infinite","setPtGeneralHash(string)":"infinite","setPtRecordHash(address,string)":"infinite"}},"methodIdentifiers":{"approveDr(address)":"0de99991","changeEditorAccess(address,string,string)":"d3cd4df4","disapproveDr(address)":"745ada64","getAdmin()":"6e9960c3","getAdminPubKey()":"116461e9","getAllDrs()":"1da3e2dc","getAllPts()":"a53f514d","getDrHash(address)":"cce9d43e","getDrOfPt()":"21639f04","getDrPubKey(address)":"dc823aaf","getPatViewers()":"8f7f43a9","getPendingDrs()":"e2877b4e","getPtGeneralHash(address)":"4df0a2d4","getPtRecordHash(address)":"3d8198b4","getPtsOfDr()":"d0d9a5e3","grantViewerAccess(address)":"b1e758a4","initialize()":"8129fc1c","isAdmin(address)":"24d7806c","isDoctor(address)":"996440c6","isDrPending(address)":"6d4bce20","isDrRegistered(address)":"290c61b0","isPatient(address)":"8f9c79ed","registerDr(string)":"32991838","registerDrConfirm(string)":"ccfaed16","registerPt(string,string)":"a03de49e","removeEditorAccess(string,string)":"5b0a7aad","revokeViewerAccess(address)":"f7a03a1e","setAdminPubKey(string)":"afb97e3d","setDrHash(string)":"99eedd2a","setPtGeneralHash(string)":"88c432e1","setPtRecordHash(address,string)":"c70597ad"}},"storageLayout":{"storage":[{"astId":575,"contract":"contracts/Contract.sol:Contract","label":"admin","offset":0,"slot":"0","type":"t_struct(Admin)550_storage"},{"astId":578,"contract":"contracts/Contract.sol:Contract","label":"doctors","offset":0,"slot":"5","type":"t_struct(Doctors)572_storage"},{"astId":581,"contract":"contracts/Contract.sol:Contract","label":"patients","offset":0,"slot":"11","type":"t_struct(Patients)559_storage"},{"astId":583,"contract":"contracts/Contract.sol:Contract","label":"initialized","offset":0,"slot":"16","type":"t_bool"}],"types":{"t_address":{"encoding":"inplace","label":"address","numberOfBytes":"20"},"t_array(t_address)dyn_storage":{"base":"t_address","encoding":"dynamic_array","label":"address[]","numberOfBytes":"32"},"t_bool":{"encoding":"inplace","label":"bool","numberOfBytes":"1"},"t_mapping(t_address,t_bool)":{"encoding":"mapping","key":"t_address","label":"mapping(address => bool)","numberOfBytes":"32","value":"t_bool"},"t_mapping(t_address,t_string_storage)":{"encoding":"mapping","key":"t_address","label":"mapping(address => string)","numberOfBytes":"32","value":"t_string_storage"},"t_mapping(t_address,t_struct(Map)13_storage)":{"encoding":"mapping","key":"t_address","label":"mapping(address => struct AddToBoolMapping.Map)","numberOfBytes":"32","value":"t_struct(Map)13_storage"},"t_mapping(t_address,t_struct(MedicalRecord)542_storage)":{"encoding":"mapping","key":"t_address","label":"mapping(address => struct Contract.MedicalRecord)","numberOfBytes":"32","value":"t_struct(MedicalRecord)542_storage"},"t_mapping(t_address,t_uint256)":{"encoding":"mapping","key":"t_address","label":"mapping(address => uint256)","numberOfBytes":"32","value":"t_uint256"},"t_string_storage":{"encoding":"bytes","label":"string","numberOfBytes":"32"},"t_struct(Admin)550_storage":{"encoding":"inplace","label":"struct Contract.Admin","members":[{"astId":544,"contract":"contracts/Contract.sol:Contract","label":"user","offset":0,"slot":"0","type":"t_address"},{"astId":546,"contract":"contracts/Contract.sol:Contract","label":"public_key","offset":0,"slot":"1","type":"t_string_storage"},{"astId":549,"contract":"contracts/Contract.sol:Contract","label":"pending_doctors","offset":0,"slot":"2","type":"t_struct(Map)13_storage"}],"numberOfBytes":"160"},"t_struct(Doctors)572_storage":{"encoding":"inplace","label":"struct Contract.Doctors","members":[{"astId":562,"contract":"contracts/Contract.sol:Contract","label":"users","offset":0,"slot":"0","type":"t_struct(Role)1516_storage"},{"astId":566,"contract":"contracts/Contract.sol:Contract","label":"public_keys","offset":0,"slot":"4","type":"t_mapping(t_address,t_string_storage)"},{"astId":571,"contract":"contracts/Contract.sol:Contract","label":"docToPatAccess","offset":0,"slot":"5","type":"t_mapping(t_address,t_struct(Map)13_storage)"}],"numberOfBytes":"192"},"t_struct(Map)13_storage":{"encoding":"inplace","label":"struct AddToBoolMapping.Map","members":[{"astId":4,"contract":"contracts/Contract.sol:Contract","label":"keys","offset":0,"slot":"0","type":"t_array(t_address)dyn_storage"},{"astId":8,"contract":"contracts/Contract.sol:Contract","label":"values","offset":0,"slot":"1","type":"t_mapping(t_address,t_bool)"},{"astId":12,"contract":"contracts/Contract.sol:Contract","label":"indexOf","offset":0,"slot":"2","type":"t_mapping(t_address,t_uint256)"}],"numberOfBytes":"96"},"t_struct(Map)204_storage":{"encoding":"inplace","label":"struct AddToStrMapping.Map","members":[{"astId":191,"contract":"contracts/Contract.sol:Contract","label":"keys","offset":0,"slot":"0","type":"t_array(t_address)dyn_storage"},{"astId":195,"contract":"contracts/Contract.sol:Contract","label":"values","offset":0,"slot":"1","type":"t_mapping(t_address,t_string_storage)"},{"astId":199,"contract":"contracts/Contract.sol:Contract","label":"indexOf","offset":0,"slot":"2","type":"t_mapping(t_address,t_uint256)"},{"astId":203,"contract":"contracts/Contract.sol:Contract","label":"inserted","offset":0,"slot":"3","type":"t_mapping(t_address,t_bool)"}],"numberOfBytes":"128"},"t_struct(MedicalRecord)542_storage":{"encoding":"inplace","label":"struct Contract.MedicalRecord","members":[{"astId":536,"contract":"contracts/Contract.sol:Contract","label":"editor","offset":0,"slot":"0","type":"t_address"},{"astId":539,"contract":"contracts/Contract.sol:Contract","label":"viewers","offset":0,"slot":"1","type":"t_array(t_address)dyn_storage"},{"astId":541,"contract":"contracts/Contract.sol:Contract","label":"key_data_hash","offset":0,"slot":"2","type":"t_string_storage"}],"numberOfBytes":"96"},"t_struct(Patients)559_storage":{"encoding":"inplace","label":"struct Contract.Patients","members":[{"astId":553,"contract":"contracts/Contract.sol:Contract","label":"users","offset":0,"slot":"0","type":"t_struct(Role)1516_storage"},{"astId":558,"contract":"contracts/Contract.sol:Contract","label":"records","offset":0,"slot":"4","type":"t_mapping(t_address,t_struct(MedicalRecord)542_storage)"}],"numberOfBytes":"160"},"t_struct(Role)1516_storage":{"encoding":"inplace","label":"struct Roles.Role","members":[{"astId":1515,"contract":"contracts/Contract.sol:Contract","label":"bearer","offset":0,"slot":"0","type":"t_struct(Map)204_storage"}],"numberOfBytes":"128"},"t_uint256":{"encoding":"inplace","label":"uint256","numberOfBytes":"32"}}},"userdoc":{"kind":"user","methods":{},"version":1}}}}