{
  "_format": "hh-sol-artifact-1",
  "contractName": "Contract",
  "sourceName": "contracts/Contract.sol",
  "abi": [
    {
      "inputs": [],
      "name": "Contract__DoctorPublicKeyMissing",
      "type": "error"
    },
    {
      "inputs": [],
      "name": "Contract__NotAdmin",
      "type": "error"
    },
    {
      "inputs": [],
      "name": "Contract__NotDoctor",
      "type": "error"
    },
    {
      "inputs": [],
      "name": "Contract__NotPatient",
      "type": "error"
    },
    {
      "inputs": [],
      "name": "Contract__PendingDoctorApproval",
      "type": "error"
    },
    {
      "inputs": [
        {
          "internalType": "address",
          "name": "_address",
          "type": "address"
        }
      ],
      "name": "approveDr",
      "outputs": [],
      "stateMutability": "nonpayable",
      "type": "function"
    },
    {
      "inputs": [
        {
          "internalType": "address",
          "name": "_address",
          "type": "address"
        },
        {
          "internalType": "string",
          "name": "_general_hash",
          "type": "string"
        },
        {
          "internalType": "string",
          "name": "_key_hash",
          "type": "string"
        }
      ],
      "name": "changeEditorAccess",
      "outputs": [],
      "stateMutability": "nonpayable",
      "type": "function"
    },
    {
      "inputs": [
        {
          "internalType": "address",
          "name": "_address",
          "type": "address"
        }
      ],
      "name": "disapproveDr",
      "outputs": [],
      "stateMutability": "nonpayable",
      "type": "function"
    },
    {
      "inputs": [],
      "name": "getAdmin",
      "outputs": [
        {
          "internalType": "address",
          "name": "",
          "type": "address"
        }
      ],
      "stateMutability": "view",
      "type": "function"
    },
    {
      "inputs": [],
      "name": "getAdminPubKey",
      "outputs": [
        {
          "internalType": "string",
          "name": "",
          "type": "string"
        }
      ],
      "stateMutability": "view",
      "type": "function"
    },
    {
      "inputs": [],
      "name": "getAllDrs",
      "outputs": [
        {
          "internalType": "address[]",
          "name": "",
          "type": "address[]"
        }
      ],
      "stateMutability": "view",
      "type": "function"
    },
    {
      "inputs": [],
      "name": "getAllPts",
      "outputs": [
        {
          "internalType": "address[]",
          "name": "",
          "type": "address[]"
        }
      ],
      "stateMutability": "view",
      "type": "function"
    },
    {
      "inputs": [
        {
          "internalType": "address",
          "name": "_address",
          "type": "address"
        }
      ],
      "name": "getDrHash",
      "outputs": [
        {
          "internalType": "string",
          "name": "",
          "type": "string"
        }
      ],
      "stateMutability": "view",
      "type": "function"
    },
    {
      "inputs": [],
      "name": "getDrOfPt",
      "outputs": [
        {
          "internalType": "address",
          "name": "",
          "type": "address"
        }
      ],
      "stateMutability": "view",
      "type": "function"
    },
    {
      "inputs": [
        {
          "internalType": "address",
          "name": "_address",
          "type": "address"
        }
      ],
      "name": "getDrPubKey",
      "outputs": [
        {
          "internalType": "string",
          "name": "",
          "type": "string"
        }
      ],
      "stateMutability": "view",
      "type": "function"
    },
    {
      "inputs": [],
      "name": "getPatViewers",
      "outputs": [
        {
          "internalType": "address[]",
          "name": "",
          "type": "address[]"
        }
      ],
      "stateMutability": "view",
      "type": "function"
    },
    {
      "inputs": [],
      "name": "getPendingDrs",
      "outputs": [
        {
          "internalType": "address[]",
          "name": "",
          "type": "address[]"
        }
      ],
      "stateMutability": "view",
      "type": "function"
    },
    {
      "inputs": [
        {
          "internalType": "address",
          "name": "_address",
          "type": "address"
        }
      ],
      "name": "getPtGeneralHash",
      "outputs": [
        {
          "internalType": "string",
          "name": "",
          "type": "string"
        }
      ],
      "stateMutability": "view",
      "type": "function"
    },
    {
      "inputs": [
        {
          "internalType": "address",
          "name": "_address",
          "type": "address"
        }
      ],
      "name": "getPtRecordHash",
      "outputs": [
        {
          "internalType": "string",
          "name": "",
          "type": "string"
        }
      ],
      "stateMutability": "view",
      "type": "function"
    },
    {
      "inputs": [],
      "name": "getPtsOfDr",
      "outputs": [
        {
          "internalType": "address[]",
          "name": "",
          "type": "address[]"
        }
      ],
      "stateMutability": "view",
      "type": "function"
    },
    {
      "inputs": [
        {
          "internalType": "address",
          "name": "_address",
          "type": "address"
        }
      ],
      "name": "grantViewerAccess",
      "outputs": [],
      "stateMutability": "nonpayable",
      "type": "function"
    },
    {
      "inputs": [],
      "name": "initialize",
      "outputs": [],
      "stateMutability": "nonpayable",
      "type": "function"
    },
    {
      "inputs": [
        {
          "internalType": "address",
          "name": "_address",
          "type": "address"
        }
      ],
      "name": "isAdmin",
      "outputs": [
        {
          "internalType": "bool",
          "name": "",
          "type": "bool"
        }
      ],
      "stateMutability": "view",
      "type": "function"
    },
    {
      "inputs": [
        {
          "internalType": "address",
          "name": "_address",
          "type": "address"
        }
      ],
      "name": "isDoctor",
      "outputs": [
        {
          "internalType": "bool",
          "name": "",
          "type": "bool"
        }
      ],
      "stateMutability": "view",
      "type": "function"
    },
    {
      "inputs": [
        {
          "internalType": "address",
          "name": "_address",
          "type": "address"
        }
      ],
      "name": "isDrPending",
      "outputs": [
        {
          "internalType": "bool",
          "name": "",
          "type": "bool"
        }
      ],
      "stateMutability": "view",
      "type": "function"
    },
    {
      "inputs": [
        {
          "internalType": "address",
          "name": "_address",
          "type": "address"
        }
      ],
      "name": "isDrRegistered",
      "outputs": [
        {
          "internalType": "bool",
          "name": "",
          "type": "bool"
        }
      ],
      "stateMutability": "view",
      "type": "function"
    },
    {
      "inputs": [
        {
          "internalType": "address",
          "name": "_address",
          "type": "address"
        }
      ],
      "name": "isPatient",
      "outputs": [
        {
          "internalType": "bool",
          "name": "",
          "type": "bool"
        }
      ],
      "stateMutability": "view",
      "type": "function"
    },
    {
      "inputs": [
        {
          "internalType": "string",
          "name": "_hash",
          "type": "string"
        }
      ],
      "name": "registerDr",
      "outputs": [],
      "stateMutability": "nonpayable",
      "type": "function"
    },
    {
      "inputs": [
        {
          "internalType": "string",
          "name": "_public_key",
          "type": "string"
        }
      ],
      "name": "registerDrConfirm",
      "outputs": [],
      "stateMutability": "nonpayable",
      "type": "function"
    },
    {
      "inputs": [
        {
          "internalType": "string",
          "name": "_hash",
          "type": "string"
        },
        {
          "internalType": "string",
          "name": "_key_data_hash",
          "type": "string"
        }
      ],
      "name": "registerPt",
      "outputs": [],
      "stateMutability": "nonpayable",
      "type": "function"
    },
    {
      "inputs": [
        {
          "internalType": "string",
          "name": "_general_hash",
          "type": "string"
        },
        {
          "internalType": "string",
          "name": "_key_hash",
          "type": "string"
        }
      ],
      "name": "removeEditorAccess",
      "outputs": [],
      "stateMutability": "nonpayable",
      "type": "function"
    },
    {
      "inputs": [
        {
          "internalType": "address",
          "name": "_address",
          "type": "address"
        }
      ],
      "name": "revokeViewerAccess",
      "outputs": [],
      "stateMutability": "nonpayable",
      "type": "function"
    },
    {
      "inputs": [
        {
          "internalType": "string",
          "name": "_public_key",
          "type": "string"
        }
      ],
      "name": "setAdminPubKey",
      "outputs": [],
      "stateMutability": "nonpayable",
      "type": "function"
    },
    {
      "inputs": [
        {
          "internalType": "string",
          "name": "_hash",
          "type": "string"
        }
      ],
      "name": "setDrHash",
      "outputs": [],
      "stateMutability": "nonpayable",
      "type": "function"
    },
    {
      "inputs": [
        {
          "internalType": "string",
          "name": "_hash",
          "type": "string"
        }
      ],
      "name": "setPtGeneralHash",
      "outputs": [],
      "stateMutability": "nonpayable",
      "type": "function"
    },
    {
      "inputs": [
        {
          "internalType": "address",
          "name": "_address",
          "type": "address"
        },
        {
          "internalType": "string",
          "name": "_hash",
          "type": "string"
        }
      ],
      "name": "setPtRecordHash",
      "outputs": [],
      "stateMutability": "nonpayable",
      "type": "function"
    }
  ],
  "bytecode": "0x608060405234801561001057600080fd5b506125c4806100206000396000f3fe608060405234801561001057600080fd5b50600436106101e55760003560e01c80638f7f43a91161010f578063c70597ad116100a2578063d3cd4df411610071578063d3cd4df4146103e9578063dc823aaf146103fc578063e2877b4e1461040f578063f7a03a1e1461041757600080fd5b8063c70597ad146103a8578063cce9d43e146103bb578063ccfaed16146103ce578063d0d9a5e3146103e157600080fd5b8063a03de49e116100de578063a03de49e14610367578063a53f514d1461037a578063afb97e3d14610382578063b1e758a41461039557600080fd5b80638f7f43a9146103265780638f9c79ed1461032e578063996440c61461034157806399eedd2a1461035457600080fd5b80633d8198b4116101875780636e9960c3116101565780636e9960c3146102e7578063745ada64146102f85780638129fc1c1461030b57806388c432e11461031357600080fd5b80633d8198b41461029b5780634df0a2d4146102ae5780635b0a7aad146102c15780636d4bce20146102d457600080fd5b806321639f04116101c357806321639f041461023257806324d7806c14610252578063290c61b014610275578063329918381461028857600080fd5b80630de99991146101ea578063116461e9146101ff5780631da3e2dc1461021d575b600080fd5b6101fd6101f836600461204e565b61042a565b005b610207610495565b6040516102149190612069565b60405180910390f35b61022561052a565b60405161021491906120d5565b61023a61053b565b6040516001600160a01b039091168152602001610214565b61026561026036600461204e565b610599565b6040519015158152602001610214565b61026561028336600461204e565b6105bf565b6101fd6102963660046121fc565b6105d2565b6102076102a936600461204e565b6106e1565b6102076102bc36600461204e565b6108dc565b6101fd6102cf366004612239565b6109ed565b6102656102e236600461204e565b610ab6565b6000546001600160a01b031661023a565b6101fd61030636600461204e565b610ad7565b6101fd610b76565b6101fd6103213660046121fc565b610c20565b610225610c6b565b61026561033c36600461204e565b610d17565b61026561034f36600461204e565b610d24565b6101fd6103623660046121fc565b610da2565b6101fd610375366004612239565b610f04565b61022561105c565b6101fd6103903660046121fc565b611068565b6101fd6103a336600461204e565b6110b7565b6101fd6103b636600461229d565b61120e565b6102076103c936600461204e565b6112db565b6101fd6103dc3660046121fc565b611327565b610225611442565b6101fd6103f73660046122e1565b61158b565b61020761040a36600461204e565b61166b565b610225611692565b6101fd61042536600461204e565b6116f1565b61043333610599565b610469576040517f4d371dc700000000000000000000000000000000000000000000000000000000815260040160405180910390fd5b61047281610d24565b6104925761048160058261178b565b15610492575b61049260028261181d565b50565b6060600060010180546104a790612355565b80601f01602080910402602001604051908101604052809291908181526020018280546104d390612355565b80156105205780601f106104f557610100808354040283529160200191610520565b820191906000526020600020905b81548152906001019060200180831161050357829003601f168201915b5050505050905090565b6060610536600561199a565b905090565b600061054633610d17565b61057c576040517fc11330e600000000000000000000000000000000000000000000000000000000815260040160405180910390fd5b50336000908152600f60205260409020546001600160a01b031690565b600080546001600160a01b038084169116036105b757506001919050565b506000919050565b60006105cc60058361178b565b92915050565b6105db33610d17565b156106535760405162461bcd60e51b815260206004820152602f60248201527f436f6e74726163743a204164647265737320616c72656164792072656769737460448201527f657265642061732070617469656e74000000000000000000000000000000000060648201526084015b60405180910390fd5b80516000036106ca5760405162461bcd60e51b815260206004820152602360248201527f436f6e74726163743a20456d7074792068617368206973206e6f7420616c6c6f60448201527f7765640000000000000000000000000000000000000000000000000000000000606482015260840161064a565b6106d6600533836119fb565b610492600233611a5d565b60606106ec82610d17565b610722576040517fc11330e600000000000000000000000000000000000000000000000000000000815260040160405180910390fd5b336001600160a01b038316148061075257506001600160a01b038281166000908152600f60205260409020541633145b806107e457506001600160a01b0382166000908152600f602090815260409182902060010180548351818402810184019094528084526107de933393909291908301828280156107cb57602002820191906000526020600020905b81546001600160a01b031681526001909101906020018083116107ad575b5050505050611b1090919063ffffffff16565b60001914155b15610894576001600160a01b0382166000908152600f60205260409020600201805461080f90612355565b80601f016020809104026020016040519081016040528092919081815260200182805461083b90612355565b80156108885780601f1061085d57610100808354040283529160200191610888565b820191906000526020600020905b81548152906001019060200180831161086b57829003601f168201915b50505050509050919050565b60405162461bcd60e51b815260206004820152600b60248201527f4e6f7420416c6c6f776564000000000000000000000000000000000000000000604482015260640161064a565b60606108e782610d17565b61091d576040517fc11330e600000000000000000000000000000000000000000000000000000000815260040160405180910390fd5b336001600160a01b038316148061094d57506001600160a01b038281166000908152600f60205260409020541633145b806109dd57506001600160a01b0382166000908152600f602090815260409182902060010180548351818402810184019094528084526109d7933393909291908301828280156107cb576020028201919060005260206000209081546001600160a01b031681526001909101906020018083116107ad575050505050611b1090919063ffffffff16565b60001914155b15610894576105cc600b83611b73565b6109f633610d17565b610a2c576040517fc11330e600000000000000000000000000000000000000000000000000000000815260040160405180910390fd5b336000818152600f6020908152604080832080547fffffffffffffffffffffffff0000000000000000000000000000000000000000811686179091556001600160a01b0316808452600a9092529091209091610a88919061181d565b610a94600b3385611a52565b336000908152600f60205260409020600201610ab083826123f6565b50505050565b6001600160a01b03811660009081526003602052604081205460ff166105cc565b610ae033610599565b610b16576040517f4d371dc700000000000000000000000000000000000000000000000000000000815260040160405180910390fd5b610b1f81610ab6565b610b6b5760405162461bcd60e51b815260206004820152601f60248201527f436f6e74726163743a20446f63746f72206e6f74207265676973746572656400604482015260640161064a565b610487600582611b86565b60105460ff1615610bc95760405162461bcd60e51b815260206004820152601d60248201527f436f6e747261637420616c726561647920696e697469616c697a656421000000604482015260640161064a565b600080547fffffffffffffffffffffffff00000000000000000000000000000000000000001633179055601080547fffffffffffffffffffffffffffffffffffffffffffffffffffffffffffffff00166001179055565b610c2933610d17565b610c5f576040517fc11330e600000000000000000000000000000000000000000000000000000000815260040160405180910390fd5b610492600b3383611a52565b6060610c7633610d17565b610cac576040517fc11330e600000000000000000000000000000000000000000000000000000000815260040160405180910390fd5b336000908152600f60209081526040918290206001018054835181840281018401909452808452909183018282801561052057602002820191906000526020600020905b81546001600160a01b03168152600190910190602001808311610cf0575050505050905090565b60006105cc600b8361178b565b6000610d3160058361178b565b610d3d57506000919050565b6001600160a01b03821660009081526003602052604090205460ff1615610d6657506000919050565b6001600160a01b03821660009081526009602052604090208054610d8990612355565b9050600003610d9a57506000919050565b506001919050565b610dad60053361178b565b610de3576040517ffe2fc9c600000000000000000000000000000000000000000000000000000000815260040160405180910390fd5b3360009081526003602052604090205460ff1615610e2d576040517ff873d3b700000000000000000000000000000000000000000000000000000000815260040160405180910390fd5b3360009081526009602052604090208054610e4790612355565b9050600003610e82576040517fa30132d500000000000000000000000000000000000000000000000000000000815260040160405180910390fd5b8051600003610ef85760405162461bcd60e51b8152602060048201526024808201527f436f6e74726163743a20456d7074792068617368206973206e6f7420616c6c6f60448201527f7765642100000000000000000000000000000000000000000000000000000000606482015260840161064a565b61049260053383611a52565b610f0d336105bf565b80610f1c5750610f1c33610d24565b15610f8f5760405162461bcd60e51b815260206004820152602e60248201527f436f6e74726163743a204164647265737320616c72656164792072656769737460448201527f6572656420617320646f63746f72000000000000000000000000000000000000606482015260840161064a565b81516000036110065760405162461bcd60e51b815260206004820152602360248201527f436f6e74726163743a20456d7074792068617368206973206e6f7420616c6c6f60448201527f7765640000000000000000000000000000000000000000000000000000000000606482015260840161064a565b611012600b33846119fb565b336000818152600f6020526040902080547fffffffffffffffffffffffff000000000000000000000000000000000000000016909117815560020161105782826123f6565b505050565b6060610536600b61199a565b61107133610599565b6110a7576040517f4d371dc700000000000000000000000000000000000000000000000000000000815260040160405180910390fd5b60016110b382826123f6565b5050565b6110c033610d17565b6110f6576040517fc11330e600000000000000000000000000000000000000000000000000000000815260040160405180910390fd5b6110ff81610d24565b611135576040517ffe2fc9c600000000000000000000000000000000000000000000000000000000815260040160405180910390fd5b336000908152600f602090815260409182902060010180548351818402810184019094528084526111b29385939092919083018282801561119f57602002820191906000526020600020905b81546001600160a01b03168152600190910190602001808311611181575b5050505050611c0c90919063ffffffff16565b61049257336000908152600f602090815260408220600190810180549182018155835291200180546001600160a01b0383167fffffffffffffffffffffffff000000000000000000000000000000000000000090911617905550565b61121782610d17565b61124d576040517fc11330e600000000000000000000000000000000000000000000000000000000815260040160405180910390fd5b6001600160a01b038281166000908152600f60205260409020541633146112b65760405162461bcd60e51b815260206004820152600b60248201527f4e6f7420416c6c6f776564000000000000000000000000000000000000000000604482015260640161064a565b6001600160a01b0382166000908152600f6020526040902060020161105782826123f6565b60606112e6826105bf565b61131c576040517ffe2fc9c600000000000000000000000000000000000000000000000000000000815260040160405180910390fd5b6105cc600583611b73565b805160000361139e5760405162461bcd60e51b815260206004820152602a60248201527f436f6e74726163743a20456d707479207075626c6963206b6579206973206e6f60448201527f7420616c6c6f7765642100000000000000000000000000000000000000000000606482015260840161064a565b6113a960053361178b565b6113df576040517ffe2fc9c600000000000000000000000000000000000000000000000000000000815260040160405180910390fd5b3360009081526003602052604090205460ff1615611429576040517ff873d3b700000000000000000000000000000000000000000000000000000000815260040160405180910390fd5b3360009081526009602052604090206110b382826123f6565b606061144f60053361178b565b611485576040517ffe2fc9c600000000000000000000000000000000000000000000000000000000815260040160405180910390fd5b3360009081526003602052604090205460ff16156114cf576040517ff873d3b700000000000000000000000000000000000000000000000000000000815260040160405180910390fd5b33600090815260096020526040902080546114e990612355565b9050600003611524576040517fa30132d500000000000000000000000000000000000000000000000000000000815260040160405180910390fd5b336000908152600a602090815260409182902080548351818402810184019094528084529091830182828015610520576020028201919060005260206000209081546001600160a01b03168152600190910190602001808311610cf0575050505050905090565b61159433610d17565b6115ca576040517fc11330e600000000000000000000000000000000000000000000000000000000815260040160405180910390fd5b6115d383610d24565b611609576040517ffe2fc9c600000000000000000000000000000000000000000000000000000000815260040160405180910390fd5b61161382826109ed565b336000818152600f6020908152604080832080547fffffffffffffffffffffffff0000000000000000000000000000000000000000166001600160a01b0389169081179091558352600a909152902061105791611a5d565b6001600160a01b038116600090815260096020526040902080546060919061080f90612355565b600280546040805160208084028201810190925282815260609390929091830182828015610520576020028201919060005260206000209081546001600160a01b03168152600190910190602001808311610cf0575050505050905090565b6116fa33610d17565b611730576040517fc11330e600000000000000000000000000000000000000000000000000000000815260040160405180910390fd5b61173981610d24565b61176f576040517ffe2fc9c600000000000000000000000000000000000000000000000000000000815260040160405180910390fd5b336000908152600f602052604090206110b39060010182611c24565b60006001600160a01b0382166118095760405162461bcd60e51b815260206004820152602260248201527f526f6c65733a206163636f756e7420697320746865207a65726f20616464726560448201527f7373000000000000000000000000000000000000000000000000000000000000606482015260840161064a565b6118138383611db6565b5115159392505050565b6001600160a01b038116600090815260018301602052604090205460ff16611843575050565b6001600160a01b038116600090815260018084016020908152604080842080547fffffffffffffffffffffffffffffffffffffffffffffffffffffffffffffff0016905560028601909152822054845490929161189f91612503565b905060008460000182815481106118b8576118b8612516565b60009182526020808320909101546001600160a01b0390811680845260028901909252604080842087905590871683528220919091558554909150819086908590811061190757611907612516565b600091825260209091200180547fffffffffffffffffffffffff0000000000000000000000000000000000000000166001600160a01b0392909216919091179055845485908061195957611959612545565b600082815260209020810160001990810180547fffffffffffffffffffffffff00000000000000000000000000000000000000001690550190555050505050565b805460408051602080840282018101909252828152606092909184919083018282801561088857602002820191906000526020600020905b81546001600160a01b031681526001909101906020018083116119d25750505050509050919050565b611a05838361178b565b15611a525760405162461bcd60e51b815260206004820152601f60248201527f526f6c65733a206163636f756e7420616c72656164792068617320726f6c6500604482015260640161064a565b611057838383611e65565b6001600160a01b038116600090815260018301602052604090205460ff1615611a84575050565b6001600160a01b0316600081815260018381016020908152604080842080547fffffffffffffffffffffffffffffffffffffffffffffffffffffffffffffff0016841790558554600287018352908420819055918201855593825292902090910180547fffffffffffffffffffffffff0000000000000000000000000000000000000000169091179055565b6000805b8351811015611b6857826001600160a01b0316848281518110611b3957611b39612516565b60200260200101516001600160a01b031603611b565790506105cc565b80611b6081612574565b915050611b14565b506000199392505050565b6060611b7f8383611db6565b9392505050565b611b90828261178b565b611c025760405162461bcd60e51b815260206004820152602160248201527f526f6c65733a206163636f756e7420646f6573206e6f74206861766520726f6c60448201527f6500000000000000000000000000000000000000000000000000000000000000606482015260840161064a565b6110b38282611f3d565b6000611c188383611b10565b60001914159392505050565b600080611c8a84805480602002602001604051908101604052809291908181526020018280548015611c7f57602002820191906000526020600020905b81546001600160a01b03168152600190910190602001808311611c61575b505050505084611b10565b90508019611c9c5760009150506105cc565b600084805480602002602001604051908101604052809291908181526020018280548015611cf357602002820191906000526020600020905b81546001600160a01b03168152600190910190602001808311611cd5575b505050505090508060018251611d099190612503565b81518110611d1957611d19612516565b6020026020010151858381548110611d3357611d33612516565b9060005260206000200160006101000a8154816001600160a01b0302191690836001600160a01b0316021790555084805480611d7157611d71612545565b600082815260209020600019908201810180547fffffffffffffffffffffffff0000000000000000000000000000000000000000169055019055506001949350505050565b6001600160a01b03811660009081526001830160205260409020805460609190611ddf90612355565b80601f0160208091040260200160405190810160405280929190818152602001828054611e0b90612355565b8015611e585780601f10611e2d57610100808354040283529160200191611e58565b820191906000526020600020905b815481529060010190602001808311611e3b57829003601f168201915b5050505050905092915050565b6001600160a01b038216600090815260038401602052604090205460ff16611f195782546001600160a01b038316600081815260028601602090815260408083209490945560038701815292812080547fffffffffffffffffffffffffffffffffffffffffffffffffffffffffffffff001660019081179091558654908101875586825292902090910180547fffffffffffffffffffffffff00000000000000000000000000000000000000001690911790555b6001600160a01b03821660009081526001840160205260409020610ab082826123f6565b6001600160a01b038116600090815260038301602052604090205460ff16611f63575050565b6001600160a01b03811660009081526001830160205260408120611f8691611fe4565b6001600160a01b0381166000908152600383016020908152604080832080547fffffffffffffffffffffffffffffffffffffffffffffffffffffffffffffff0016905560028501909152812054835490919061189f90600190612503565b508054611ff090612355565b6000825580601f10612000575050565b601f01602090049060005260206000209081019061049291905b8082111561202e576000815560010161201a565b5090565b80356001600160a01b038116811461204957600080fd5b919050565b60006020828403121561206057600080fd5b611b7f82612032565b600060208083528351808285015260005b818110156120965785810183015185820160400152820161207a565b5060006040828601015260407fffffffffffffffffffffffffffffffffffffffffffffffffffffffffffffffe0601f8301168501019250505092915050565b6020808252825182820181905260009190848201906040850190845b818110156121165783516001600160a01b0316835292840192918401916001016120f1565b50909695505050505050565b7f4e487b7100000000000000000000000000000000000000000000000000000000600052604160045260246000fd5b600082601f83011261216257600080fd5b813567ffffffffffffffff8082111561217d5761217d612122565b604051601f83017fffffffffffffffffffffffffffffffffffffffffffffffffffffffffffffffe0908116603f011681019082821181831017156121c3576121c3612122565b816040528381528660208588010111156121dc57600080fd5b836020870160208301376000602085830101528094505050505092915050565b60006020828403121561220e57600080fd5b813567ffffffffffffffff81111561222557600080fd5b61223184828501612151565b949350505050565b6000806040838503121561224c57600080fd5b823567ffffffffffffffff8082111561226457600080fd5b61227086838701612151565b9350602085013591508082111561228657600080fd5b5061229385828601612151565b9150509250929050565b600080604083850312156122b057600080fd5b6122b983612032565b9150602083013567ffffffffffffffff8111156122d557600080fd5b61229385828601612151565b6000806000606084860312156122f657600080fd5b6122ff84612032565b9250602084013567ffffffffffffffff8082111561231c57600080fd5b61232887838801612151565b9350604086013591508082111561233e57600080fd5b5061234b86828701612151565b9150509250925092565b600181811c9082168061236957607f821691505b6020821081036123a2577f4e487b7100000000000000000000000000000000000000000000000000000000600052602260045260246000fd5b50919050565b601f82111561105757600081815260208120601f850160051c810160208610156123cf5750805b601f850160051c820191505b818110156123ee578281556001016123db565b505050505050565b815167ffffffffffffffff81111561241057612410612122565b6124248161241e8454612355565b846123a8565b602080601f83116001811461245957600084156124415750858301515b600019600386901b1c1916600185901b1785556123ee565b6000858152602081207fffffffffffffffffffffffffffffffffffffffffffffffffffffffffffffffe08616915b828110156124a657888601518255948401946001909101908401612487565b50858210156124c45787850151600019600388901b60f8161c191681555b5050505050600190811b01905550565b7f4e487b7100000000000000000000000000000000000000000000000000000000600052601160045260246000fd5b818103818111156105cc576105cc6124d4565b7f4e487b7100000000000000000000000000000000000000000000000000000000600052603260045260246000fd5b7f4e487b7100000000000000000000000000000000000000000000000000000000600052603160045260246000fd5b60006000198203612587576125876124d4565b506001019056fea26469706673582212206d81b3a1b0369d18136bf26f1f7e7da69ef403d90acdc5cbfbebb998fea757a164736f6c63430008110033",
  "linkReferences": {},
  "deployedLinkReferences": {}
}